:020000040800F2
:10000000A804002001010008111D0008091D0008B6
:100010000D1D00088906000875200008000000007A
:10002000000000000000000000000000C11D0008EA
:100030008D06000800000000811D0008191E000840
:100040001B0100081B0100081B0100081B01000820
:100050001B0100081B0100081B0100081B01000810
:100060001B0100081B0100081B0100081B01000800
:100070001B0100081B0100081B0100081B010008F0
:100080001B0100081B0100081B0100081B010008E0
:100090001B0100081B0100081B0100081B010008D0
:1000A0001B0100081B0100081B0100081B010008C0
:1000B0001B010008911E0008000000001B01000841
:1000C0001B01000800000000000000001B010008E8
:1000D000000000001B0100081B01000800000000D8
:1000E0001B0100081B0100081B010008DFF80CD0F1
:1000F00000F02AFA0048004771210008A8040020F7
:100100000648804706480047FEE7FEE7FEE7FEE7B1
:10011000FEE7FEE7FEE7FEE7FEE7FEE78D1E0008CE
:10012000ED000008D2B201E000F8012B491EFBD21D
:1001300070470022F6E710B513460A4604461946F2
:10014000FFF7F0FF204610BD30B50B4601460020FA
:100150002022012409E021FA02F59D4205D303FA89
:1001600002F5491B04FA02F52844151EA2F101020A
:10017000F1DC30BD2DE9F05F0546002092469B463C
:1001800088460646814640241BE0284641464746AD
:10019000224600F0FAF953465A46C01A914110D34C
:1001A00011461846224600F0E1F92D1A67EB0108C6
:1001B0004F4622460120002100F0D8F917EB000934
:1001C0004E41201EA4F10104DFDC484631462A4698
:1001D0004346BDE8F09F2DE9FE4F804681EA0300CB
:1001E000C00F0C46009021F0004123F00045B8EB11
:1001F0000200A94105D24046214690461C460B46C6
:10020000024623F00040104347D0270DC7F30A00F1
:10021000C3F30A510290401A019040286BDAC3F3ED
:10022000130040F4801B0098924620B10023D2EBCB
:10023000030A63EB0B0B01985946C0F1400250468C
:1002400000F094F906460D4650465946019A00F0D2
:10025000ACF910EB08006141002487EA115284EAEE
:10026000E7731A4340D0009A62B3019A012A4FEA19
:10027000075215DC001B61EB02014FF0004202EA5D
:100280000752CDE90042001C41F5801132462B4651
:1002900000F0ACF903B0BDE8F08F40462146F9E725
:1002A000001B61EB0201001C41F5801300185B414B
:1002B0002018A2F5001747EB030140EAD570B619E4
:1002C0006D4111E06D084FEA360645EAC0754FEA08
:1002D0000752001B61EB0201001C41F58011490827
:1002E0004FEA30000019514132462B4603B0BDE8B9
:1002F000F04F00F06CB90098012240000023D0EBD1
:10030000020263EBE073009821464FEAE074B8EB19
:10031000000061EB0401E9E783F000435BE781F053
:10032000004158E72DE9FE4F81EA030404F0004440
:1003300021F0004100944FF0000B23F0004350EAFD
:1003400001045ED052EA03045BD0C3F30A54C1F344
:100350000A552C44A4F2F3340194A0FB0254C1F3D7
:10036000130141F48011C3F3130343F4801301FB21
:10037000024400FB034E840A970A44EA815447EA88
:100380008357A4FB076802958D0A05FB07854FEA92
:10039000932C04FB0C542705029D4FEA065847EAAC
:1003A0001637B5EB08056EEB070C870E920E47EA81
:1003B000811742EA8312A7FB0201B6EB0B0164EB43
:1003C00000042B0D43EA0C335E1844EB1C50DA4654
:1003D0005146E7FB0201C5F313044FEA0B3343EA2E
:1003E00014534FEA0432019C43EA0603A4F10C04BF
:1003F0000294009CCDE900B400F0F8F803B0BDE829
:10040000F08F00200146F9E72DE9F04D81EA030461
:1004100004F0004B21F0004514464FF0000A23F091
:10042000004150EA050220D054EA01021DD0C5F374
:100430000A570246C5F31303C1F31300C1F30A566A
:1004400040F4801543F48013A7EB0608101BD64632
:1004500008F2FD3873EB050002D308F1010801E052
:1004600092185B41B8F1000F03DA00200146BDE8A5
:10047000F08D00204FF48011064684460EE0171BD5
:1004800073EB050705D3121B63EB050306434CEA28
:10049000010C49084FEA300092185B4150EA01070D
:1004A000EDD152EA030012D082EA040083EA05018A
:1004B000084305D0101BAB4106D20122002306E001
:1004C00000224FF0004302E06FF0010253101AEBDC
:1004D00006004CEB085110EB0A0041EB0B01BDE8A4
:1004E000F04D00F074B8C1F30A52C1F3130140F2A9
:1004F000FF3341F480119A4202DA0020014670472E
:1005000040F233439A42A2F2334202DC524200F0FC
:100510003CB800F02BB8000030B5041E71F10004A7
:1005200004DB4FF00044404264EB0101141E73F100
:10053000000405DB1C464FF00043524263EB04030A
:10054000994208BF904230BD064C074D06E0E06876
:1005500040F0010394E8070098471034AC42F6D30A
:10056000FFF7C8FD482F0008682F0008202A04DB89
:10057000203A00FA02F1002070479140C2F12003B6
:1005800020FA03F3194390407047202A04DB203AF5
:1005900021FA02F00021704721FA02F3D040C2F1A3
:1005A00020029140084319467047202A06DBCB17EA
:1005B000203A41FA02F043EAE07306E041FA02F31E
:1005C000D040C2F12002914008431946704710B54F
:1005D000141E73F1000408DA401C41F10001921866
:1005E0005B411A4301D120F0010010BD2DE9F04D0F
:1005F00092469B4611B1B1FA81F202E0B0FA80F264
:1006000020329046FFF7B2FF04460F4640EA0A0048
:1006100041EA0B0153465A46084313D0114653EAA8
:10062000010019D0C8F140025046FFF7AEFF054661
:100630000E46504659464246FFF798FF084305D0FC
:10064000012004E020463946BDE8F08D0020054336
:1006500046EAE0762C4337430A986305E40AA0EBA8
:1006600008000022FD0A44EA47540A3002D500205F
:100670000146E9E7010510196941DDE9084500195E
:100680006941BDE8F04DA2E7FFE7FEE770470000D3
:1006900081B0EFF3108072B60090FFE7FEE7000034
:1006A00080B584B0039000F0B7F9029003980190F0
:1006B0000198013048B1FFE740F20400C2F20000A7
:1006C0000178019808440190FFE7FFE700F0A4F9E2
:1006D0000299401A0199884201D2FFE7F6E704B077
:1006E00080BD00008FB00E900D9100200C900890FE
:1006F000FFE70D9800680C99C840002800F0718150
:10070000FFE70C99012088400B900D9800680B9929
:1007100008400A900A980B99884240F05E81FFE7F2
:100720000D9840680490002851D0FFE704980128F4
:100730003AD0FFE7049802283FD0FFE70498032847
:100740005FD0FFE70498112832D0FFE70498122801
:1007500038D0FFE704980021C1F21101884236D059
:10076000FFE704980021C1F2120188422FD0FFE771
:1007700004980021C1F22101884228D0FFE70498A3
:100780000021C1F22201884221D0FFE70498002114
:10079000C1F2310188421AD0FFE704980021C1F26A
:1007A0003201884213D02FE00D98C06808902CE0E9
:1007B0000D98C0680430089027E00D98C068083094
:1007C000089022E00D98C0680C3008901DE00D984C
:1007D000806818B9FFE70420089011E00D98806840
:1007E000012806D1FFE7082008900B980E990861B0
:1007F00005E0082008900B980E994861FFE7FFE795
:1008000003E00020089000E0FFE70A98FF2803D8E3
:10081000FFE70E98039003E00E9804300390FFE783
:10082000039807900A98FF2804D8FFE70C988000E7
:10083000029006E00C996FF01F0000EB810002901F
:10084000FFE70298069007980068069A0F219140EA
:100850008843089991400843079908600D98C0792A
:10086000C006002840F1B880FFE7FFE741F218001A
:10087000C4F20200016841F001010160006800F06B
:10088000010005900598FFE70C9820F0030008216F
:10089000C4F20101405809900C9800F00300810057
:1008A0000F2000FA01F10998884309900E9840F64C
:1008B0000001C4F20101884203D1FFE7002001904A
:1008C00018E00E9840F60041C4F20101884203D1BD
:1008D000FFE7012000900AE00E9941F20002C4F205
:1008E00001020320914208BF02200090FFE7009818
:1008F0000190FFE701980C9901F00301890000FACB
:1009000001F109980843099009980C9921F0030115
:100910000822C4F2010288500D988079C006002890
:1009200009D5FFE70A9A40F20841C4F201010868BC
:100930001043086008E00A9A40F20841C4F201013D
:10094000086890430860FFE70D98807980060028CA
:1009500009D5FFE70A9A40F20C41C4F20101086888
:100960001043086008E00A9A40F20C41C4F2010109
:10097000086890430860FFE70D9880798007002899
:1009800009D5FFE70A9A40F20441C4F20101086860
:100990001043086008E00A9A40F20441C4F20101E1
:1009A000086890430860FFE70D988079C00748B158
:1009B000FFE70A9A40F20041C4F2010108681043BF
:1009C000086008E00A9A40F20041C4F20101086898
:1009D00090430860FFE7FFE7FFE70C9801300C90B9
:1009E00087E60FB07047000082B00190ADF80210AA
:1009F0008DF801209DF8010028B1FFE7BDF8020045
:100A00000199086105E0BDF8020000040199086140
:100A1000FFE702B07047000040F2A000C2F2000001
:100A20000068704740F20400C2F20000027840F211
:100A3000A001C2F20001086810440860704700007D
:100A400080B542F20001C4F20201086840F01000D3
:100A50000860032000F090F80F2000F005F800F087
:100A60003BF8002080BD000080B582B0009040F2CD
:100A70000000C2F20000006840F20401C2F200016E
:100A80000A784FF47A71B1FBF2F1B0FBF1F000F0AB
:100A900043FD20B1FFE701208DF8070018E0009822
:100AA0000F280DD8FFE700994FF0FF30002200F02B
:100AB00049F8009840F20801C2F20001086003E022
:100AC00001208DF8070003E000208DF80700FFE704
:100AD0009DF8070002B080BD82B0FFE741F2180028
:100AE000C4F20200016841F001010160006800F0F9
:100AF000010001900198FFE7FFE741F21C00C4F2FA
:100B00000200016841F080510160006800F08050EF
:100B100000900098FFE702B07047000080B582B0F7
:100B20008DF807009DF9070001F0A6FA02B080BD1C
:100B300080B582B08DF807009DF9070001F0B8FA82
:100B400002B080BD80B586B08DF817000491039285
:100B50000020029001F0C4FA02909DF91700019064
:100B600002980499039A01F0D5F80146019801F022
:100B7000BFFA06B080BD000080B582B00190019838
:100B800001F0D8FA02B080BD80B584B00290019126
:100B9000029820B9FFE701208DF80F001BE10198B2
:100BA00042F20001C4F20201096801F00701884223
:100BB00016D9FFE742F20000C4F20200016821F0FA
:100BC0000701019A11430160006800F007000199D4
:100BD000884204D0FFE701208DF80F00FBE0FFE71B
:100BE00002980078800700282AD5FFE7029800784D
:100BF0004007002809D5FFE741F20401C4F20201D1
:100C0000086840F4E0600860FFE702980078000799
:100C1000002809D5FFE741F20401C4F20201086887
:100C200040F460500860FFE741F20401C4F20201A1
:100C3000086820F0F000029A926810430860FFE70D
:100C400002980078C007002860D0FFE7029840684B
:100C500001280ED1FFE741F20000C4F20200006853
:100C60008003002804D4FFE701208DF80F00B2E0D4
:100C700021E00298406802280ED1FFE741F200000F
:100C8000C4F2020000688001002804D4FFE70120BC
:100C90008DF80F009FE00DE041F20000C4F2020069
:100CA00000688007002804D4FFE701208DF80F00BA
:100CB00091E0FFE7FFE741F20401C4F20201086896
:100CC00020F00300029A526810430860FFF7A4FE68
:100CD0000090FFE741F20400C4F20200006800F057
:100CE0000C0002994968B0EB810F0ED0FFE7FFF7C7
:100CF00093FE0099401A41F28931884204D3FFE7FC
:100D000003208DF80F0066E0E4E7FFE7019842F268
:100D10000001C4F20201096801F00701884216D2FD
:100D2000FFE742F20000C4F20200016821F007016F
:100D3000019A11430160006800F0070001998842A0
:100D400004D0FFE701208DF80F0044E0FFE7029890
:100D50000078400700280CD5FFE741F20401C4F2F7
:100D60000201086820F4E060029AD268104308602B
:100D7000FFE702980078000700280DD5FFE741F251
:100D80000401C4F20201086820F46050029A12695A
:100D900040EAC2000860FFE700F022F841F20401D7
:100DA000C4F202010968C9B20A0942F61C71C0F610
:100DB0000001895CC84040F20001C2F200010860F5
:100DC00040F20800C2F200000068FFF74DFE00206C
:100DD0008DF80F00FFE79DF80F0004B080BD000004
:100DE00086B000200590049003900290019041F29B
:100DF0000400C4F2020000680590059800F00C00A1
:100E00000146009100283FD0FFE70098042804D055
:100E1000FFE70098082806D037E041F20020C0F232
:100E20007A00019037E00598C0F3834142F62C70B8
:100E3000C0F60000405C02909DF81600C007C0B1EB
:100E4000FFE741F20400C4F202000068C0F3404131
:100E500042F63C70C0F60000405C0490029841F2FB
:100E60000021C0F27A0148430499B0FBF1F00390ED
:100E700007E0029840F60011C0F23D01484303909C
:100E8000FFE70398019006E0FFE741F20020C0F27F
:100E90007A000190FFE7019806B0704780B586B0F0
:100EA0000490049820B9FFE701208DF817002EE385
:100EB00004980078C007002800F0AE80FFE741F2F8
:100EC0000400C4F20200006800F00C00042813D0F3
:100ED000FFE741F20400C4F20200006800F00C00D9
:100EE00008281BD1FFE741F20400C4F202000068A9
:100EF000C003002812D5FFE741F20000C4F202004F
:100F000000688003002808D5FFE70498406820B9EE
:100F1000FFE701208DF81700F9E27CE0FFE7049875
:100F20004068B0F5803F09D1FFE741F20001C4F20B
:100F30000201086840F48030086032E0049840689C
:100F400068B9FFE741F20001C4F20201086820F429
:100F500080300860086820F48020086020E0049851
:100F60004068B0F5A02F0DD1FFE741F20001C4F2B7
:100F70000201086840F480200860086840F480306E
:100F800008600CE041F20001C4F20201086820F49C
:100F900080300860086820F480200860FFE7FFE7E1
:100FA000FFE7FFE704984068D0B1FFE7FFF734FDA3
:100FB0000390FFE741F20000C4F2020000688003E2
:100FC00000280CD4FFE7FFF727FD0399401A652896
:100FD00004D3FFE703208DF8170098E2EAE719E051
:100FE000FFF71AFD0390FFE741F20000C4F2020090
:100FF0000068800300280CD5FFE7FFF70DFD03997B
:10100000401A652804D3FFE703208DF817007EE21D
:10101000EAE7FFE7FFE7FFE704980078800700288A
:1010200040F18D80FFE741F20400C4F20200006845
:1010300010F00C0F13D0FFE741F20400C4F20200DD
:10104000006800F00C00082829D1FFE741F20400F5
:10105000C4F202000068C003002820D4FFE741F278
:101060000000C4F2020000688007002809D5FFE7ED
:1010700004980069012804D0FFE701208DF81700CB
:1010800045E241F20001C4F20201086820F0F800D4
:10109000049A526940EAC2000860FFE74EE00498F3
:1010A000006958B3FFE70021C4F242210120086023
:1010B000FFF7B2FC0390FFE741F20000C4F2020028
:1010C0000068800700280CD4FFE7FFF7A5FC039910
:1010D000401A032804D3FFE703208DF8170016E217
:1010E000EAE741F20001C4F20201086820F0F800CA
:1010F000049A526940EAC20008601EE00021C4F26E
:10110000422100200860FFF787FC0390FFE741F2CF
:101110000000C4F202000068800700280CD5FFE739
:10112000FFF77AFC0399401A032804D3FFE7032052
:101130008DF81700EBE1EAE7FFE7FFE7FFE7049828
:1011400000780007002848D5FFE70498806918B3A5
:10115000FFE740F28041C4F2422101200860FFF71E
:101160005BFC0390FFE741F22400C4F20200006838
:10117000800700280CD4FFE7FFF74EFC0399401AC4
:10118000032804D3FFE703208DF81700BFE1EAE747
:10119000012000F0F7FD1FE040F28041C4F242213F
:1011A00000200860FFF738FC0390FFE741F22400BD
:1011B000C4F202000068800700280CD5FFE7FFF7A3
:1011C0002BFC0399401A032804D3FFE703208DF872
:1011D00017009CE1EAE7FFE7FFE704980078400783
:1011E000002840F1D880FFE700208DF8070041F289
:1011F0001C00C4F202000068C000002813D4FFE7FE
:10120000FFE741F21C00C4F20200016841F0805186
:101210000160006800F0805000900098FFE7012016
:101220008DF80700FFE747F20000C4F200000068F5
:10123000C005002822D4FFE747F20001C4F20001F4
:10124000086840F480700860FFF7E6FB0390FFE752
:1012500047F20000C4F200000068C00500280CD46A
:10126000FFE7FFF7D9FB0399401A652804D3FFE78E
:1012700003208DF817004AE1EAE7FFE7FFE704984B
:10128000C068012809D1FFE741F22001C4F2020140
:10129000086840F00100086031E00498C06868B94F
:1012A000FFE741F22001C4F20201086820F00100CA
:1012B0000860086820F0040008601FE00498C06817
:1012C00005280DD1FFE741F22001C4F202010868B0
:1012D00040F004000860086840F0010008600CE07D
:1012E00041F22001C4F20201086820F00100086008
:1012F000086820F004000860FFE7FFE7FFE7FFE76A
:101300000498C068E0B1FFE7FFF786FB0390FFE7B2
:1013100041F22000C4F202000068800700280ED4C9
:10132000FFE7FFF779FB0399401A41F289318842C0
:1013300004D3FFE703208DF81700E8E0E8E71BE09F
:10134000FFF76AFB0390FFE741F22000C4F20200BE
:101350000068800700280ED5FFE7FFF75DFB0399C3
:10136000401A41F28931884204D3FFE703208DF807
:101370001700CCE0E8E7FFE79DF80700012809D156
:10138000FFE741F21C01C4F20201086820F080501E
:101390000860FFE7FFE70498C069002800F0B38009
:1013A000FFE741F20400C4F20200006800F00C0004
:1013B000082800F08280FFE70498C06902285CD109
:1013C000FFE76021C4F2422100200860FFF724FB00
:1013D0000390FFE741F20000C4F2020000688001C0
:1013E00000280CD5FFE7FFF717FB0399401A0328E5
:1013F00004D3FFE703208DF8170088E0EAE704989C
:10140000006AB0F5803F0CD1FFE741F20401C4F25D
:101410000201086820F40030049A926810430860C2
:10142000FFE741F20401C4F20201086820F47410DD
:10143000049B1A6A5B6A1A43104308606021C4F275
:10144000422101200860FFF7E7FA0390FFE741F22D
:101450000000C4F202000068800100280CD4FFE7FD
:10146000FFF7DAFA0399401A032804D3FFE70320B1
:101470008DF817004BE0EAE71EE06021C4F242213C
:1014800000200860FFF7C8FA0390FFE741F2000070
:10149000C4F202000068800100280CD5FFE7FFF7C6
:1014A000BBFA0399401A032804D3FFE703208DF801
:1014B00017002CE0EAE7FFE724E00498C069012860
:1014C00004D1FFE701208DF8170020E041F204006D
:1014D000C4F2020000680290029800F4803004997F
:1014E000096A884208D1FFE7029800F47010049955
:1014F000496A884204D0FFE701208DF8170006E012
:10150000FFE7FFE7FFE700208DF81700FFE79DF8F2
:10151000170006B080BD000080B582B00190019830
:1015200000F050FC02B080BD81B0009001B0704767
:1015300081B0009001B0704785B003900291FFE741
:10154000039890F83C00012804D1FFE702208DF8B1
:10155000130052E00399012081F83C00FFE7FFE708
:101560000399022081F83D000398006840680190CB
:101570000398006880680090019820F07000019046
:10158000029801680198084301900198039909683D
:1015900048600398006842F60041C4F201018842A5
:1015A0000FD0FFE703980068B0F1804F09D0FFE744
:1015B0000398006840F20041C4F2000188420ED155
:1015C000FFE7009820F080000090029841680098A2
:1015D000084300900098039909688860FFE7039921
:1015E000012081F83D00FFE70399002081F83C00CD
:1015F000FFE700208DF81300FFE79DF8130005B00A
:101600007047000080B582B001900199022081F8F6
:101610003D00FFE701980068006A41F2111108429D
:1016200010D1FFE701980068006A40F24441084287
:1016300007D1FFE701980168086820F00100086001
:10164000FFE7FFE7FFE7019800F07EF8019900202F
:1016500081F84600FFE70199002081F83E000199DA
:1016600081F83F00019981F84000019981F841001B
:10167000FFE7FFE70199002081F84200019981F816
:101680004300019981F84400019981F84500FFE782
:101690000199002081F83D00FFE70199002081F8C1
:1016A0003C00FFE7002002B080BD000080B582B0A2
:1016B0000090009820B9FFE701208DF807003FE077
:1016C000009890F83D0040B9FFE70099002081F8AC
:1016D0003C00009800F052F8FFE70099022081F8E2
:1016E0003D00009951F8040B00F0DAFB009901204D
:1016F00081F84600FFE70099012081F83E0000993B
:1017000081F83F00009981F84000009981F841007C
:10171000FFE7FFE70099012081F84200009981F876
:101720004300009981F84400009981F84500FFE7E3
:101730000099012081F83D0000208DF80700FFE7A7
:101740009DF8070002B080BD80B582B0019001987D
:10175000006840F20041C4F2000188420CD1FFE76A
:1017600041F21C01C4F20201086820F00200086086
:101770001D20FFF7D3F9FFE702B080BD80B584B02C
:1017800003900398006840F20041C4F200018842CF
:1017900019D1FFE7FFE741F21C00C4F20200016823
:1017A00041F002010160006800F00200029002981E
:1017B000FFE71D20019000221146FFF7C3F90198B1
:1017C000FFF7B6F9FFE704B080BD000083B00190D9
:1017D000019890F83D00012804D0FFE701208DF822
:1017E0000B003EE00199022081F83D00019801685C
:1017F000C86840F00100C8600198006842F60041E6
:10180000C4F2010188420FD0FFE701980068B0F1EF
:10181000804F09D0FFE70198006840F20041C4F210
:101820000001884212D1FFE701980068806800F04B
:10183000070000900098062807D0FFE7019801688C
:10184000086840F001000860FFE706E001980168C1
:10185000086840F001000860FFE700208DF80B00E9
:10186000FFE79DF80B0003B07047000081B00090C7
:1018700000980168C86820F00100C860FFE7009880
:101880000068006A41F21111084210D1FFE7009888
:101890000068006A40F24441084207D1FFE700981F
:1018A0000168086820F001000860FFE7FFE7FFE734
:1018B0000099012081F83D00002001B07047000030
:1018C00080B586B00490039100208DF80B00FFE7EF
:1018D000049890F83C00012804D1FFE702208DF81D
:1018E0001700ABE00499012081F83C00FFE7FFE717
:1018F0000499022081F83D000498006880680190F6
:10190000019820F077000190019820F47F40019029
:10191000019804990968886003980068009000287D
:1019200072D0FFE7009810286ED0FFE700982028BB
:101930006AD0FFE70098302866D0FFE7009840287B
:1019400055D0FFE70098502837D0FFE7009860286F
:1019500040D0FFE7009870280BD0FFE70098B0F563
:10196000805F05D0FFE70098B0F5005F16D052E029
:1019700055E004980068039B5A689968DB6800F09A
:10198000F7FA0498006880680190019840F07700A9
:101990000190019804990968886040E00498006803
:1019A000039B5A689968DB6800F0E2FA04980168C2
:1019B000886840F48040886031E004980068039AA9
:1019C0005168D26800F004FB04980068502100F0D0
:1019D000E9FA24E004980068039A5168D26800F09C
:1019E0001FFB04980068602100F0DCFA17E00498FF
:1019F0000068039A5168D26800F0EAFA0498006817
:101A0000402100F0CFFA0AE00498006803990968C1
:101A100000F0C8FA03E001208DF80B00FFE70499FD
:101A2000012081F83D00FFE70499002081F83C0087
:101A3000FFE79DF80B008DF81700FFE79DF81700F2
:101A400006B080BD81B0009001B0704780B582B013
:101A5000019001980068006900F002010020B0EBDD
:101A6000510F28D0FFE701980068C06800F002011C
:101A70000020B0EB510F1DD0FFE7019801686FF017
:101A800002000861019901200877019800688069C7
:101A9000800720B1FFE70198FFF7D4FF06E0019827
:101AA00000F012F9019800F013F9FFE70199002006
:101AB0000877FFE7FFE701980068006900F004017C
:101AC0000020B0EB910F29D0FFE701980068C068B3
:101AD00000F004010020B0EB910F1ED0FFE7019849
:101AE00001686FF0040008610199022008770198ED
:101AF0000068806910F4407F04D0FFE70198FFF789
:101B0000A1FF06E0019800F0DFF8019800F0E0F88E
:101B1000FFE7019900200877FFE7FFE701980068D9
:101B2000006900F008010020B0EBD10F28D0FFE7DA
:101B300001980068C06800F008010020B0EBD10FE8
:101B40001DD0FFE7019801686FF008000861019956
:101B50000420087701980068C069800720B1FFE77A
:101B60000198FFF76FFF06E0019800F0ADF80198CB
:101B700000F0AEF8FFE7019900200877FFE7FFE7E4
:101B800001980068006900F010010020B0EB111FFF
:101B900029D0FFE701980068C06800F0100100201C
:101BA000B0EB111F1ED0FFE7019801686FF0100025
:101BB000086101990820087701980068C06910F44D
:101BC000407F04D0FFE70198FFF73CFF06E0019853
:101BD00000F07AF8019800F07BF8FFE70199002007
:101BE0000877FFE7FFE7019800680069C00780B148
:101BF000FFE701980068C068C00748B1FFE7019897
:101C000001686FF001000861019800F065F8FFE7D6
:101C1000FFE7019800680069C1B20020B0EBD11F56
:101C200013D0FFE701980068C068C1B20020B0EB94
:101C3000D11F09D0FFE7019801686FF080000861AB
:101C40000198FFF771FCFFE7FFE701980068006962
:101C500000F040010020B0EB911F14D0FFE7019885
:101C60000068C06800F040010020B0EB911F09D06F
:101C7000FFE7019801686FF040000861019800F0EB
:101C80003FF8FFE7FFE701980068006900F02001D6
:101C90000020B0EB511F14D0FFE701980068C06826
:101CA00000F020010020B0EB511F09D0FFE70198A0
:101CB00001686FF0200008610198FFF739FCFFE729
:101CC000FFE702B080BD000081B0009001B0704716
:101CD00081B0009001B0704780B582B0019001984A
:101CE00040F21001C2F20001884207D1FFE740F242
:101CF0005800C2F2000000F093FAFFE702B080BD86
:101D000081B0009001B07047FFE7FEE7FFE7FEE714
:101D1000FFE7FEE788B0079006910592079800F06C
:101D2000070004900498C0F10700052803D3FFE7DB
:101D30000420019004E00498C0F107000190FFE73F
:101D40000198039004980430062803D8FFE7002088
:101D5000009003E0049803380090FFE70098029099
:101D600006980399012202FA01F101390840029B09
:101D7000984005999A40013A1140084308B07047CD
:101D80007047000082B00190019840F20001C2F259
:101D900000010968C90844F6D352C1F26202A1FBEE
:101DA0000221890948430090FFE700BFFFE7009840
:101DB000411E00910028F8D1FFE702B070470000F3
:101DC0007047000080B582B0009000980138B0F1F3
:101DD000807F03D3FFE70120019019E000980138CC
:101DE0004EF21401CEF2000108604FF0FF300F21D7
:101DF00000F07EF94EF21801CEF2000100200860DA
:101E00004EF21002CEF20002072111600190FFE7AE
:101E1000019802B080BD000080B5FEF703FE80BDD2
:101E200080B590B006A800902821FEF782F90098AE
:101E300000230593049303930293019301220692D6
:101E40004FF48031079108930A9202220D920E916D
:101E50004FF4E0110F91FFF721F818B1FFE7FEF7FB
:101E600017FCFFE70F200190022102910020039050
:101E70004FF4A0620492059001A8FEF785FE18B108
:101E8000FFE7FEF705FCFFE710B080BD70470000DC
:101E900080B540F21000C2F20000FFF7D7FD80BD10
:101EA00083B002900191029800680090029842F677
:101EB0000041C4F2010188420DD0FFE70298B0F161
:101EC000804F08D0FFE7029840F20041C4F20001C1
:101ED00088420AD1FFE7009820F070000090019836
:101EE0004168009808430090FFE7029842F60041DD
:101EF000C4F2010188420DD0FFE70298B0F1804F93
:101F000008D0FFE7029840F20041C4F20001884285
:101F10000AD1FFE7009820F4407000900198C16852
:101F2000009808430090FFE7009820F08000019996
:101F300049690843009000980299086001988068F8
:101F40000299C8620198006802998862029842F674
:101F50000041C4F20101884205D1FFE70198006900
:101F600002990863FFE702990120486103B07047B6
:101F700085B00490039102920193049880680090C8
:101F8000009820F47F40009003980299019A41EA5A
:101F9000022101430098084300900098049988604A
:101FA00005B0704783B0029001910298806800905C
:101FB000009820F07000009001980099084340F0CC
:101FC0000700009000980299886003B070470000F5
:101FD00085B00490039102920498006A00900499DD
:101FE000086A20F001000862049880690190019855
:101FF00020F0F00001900299019840EA0110019050
:10200000009820F00A00009003990098084300907F
:1020100001980499886100980499086205B0704796
:1020200085B00490039102920498006A009004998C
:10203000086A20F0100008620498806901900198F5
:1020400020F4704001900299019840EA013001901B
:10205000009820F0A00000900399009840EA011039
:10206000009001980499886100980499086205B06D
:1020700070470000FFE7FEE781B08DF803009DF98F
:102080000300002812D4FFE79DF9031001F01F029E
:10209000012090404A094EF28011CEF2000141F831
:1020A0002200BFF34F8FBFF36F8FFFE701B0704780
:1020B00081B08DF803009DF9030000280ED4FFE7DE
:1020C0009DF9031001F01F02012090404A094EF2D1
:1020D0000011CEF2000141F82200FFE701B0704785
:1020E0004EF60C50CEF200000068C0F3022070479C
:1020F00082B08DF8070000919DF9070000280AD4EE
:10210000FFE7009800019DF907104EF20042CEF261
:10211000000288540BE0009800019DF8071001F0C0
:102120000F014EF61452CEF200028854FFE702B0BF
:102130007047000083B00290029800F00700009002
:102140004EF60C51CEF200010868019001984FF64E
:10215000FF02104001900198009A40EA02200022FC
:10216000C0F2FA52104301900198086003B0704722
:1021700080B5B6B000203590FEF762FCFFF750FE48
:102180004FF4FA60FEF78CFA40F25800C2F20000F9
:10219000019042F21141C0F60001016042F2E531C6
:1021A000C0F60001416042F29942C0F6000282602E
:1021B00042F2AD42C0F60002C26042F2C142C0F635
:1021C00000020261416142F22551C0F600018161C5
:1021D00000F0B2F8FFE740F25800C2F2000090F8B9
:1021E000210001281AD1FFE7FEF716FC034642F64C
:1021F0003E72C0F6000203A80090C82100F000FA69
:1022000000990290029A40F25800C2F2000000F0D9
:10221000A9F94FF47A70FEF743FAFFE7DBE7000015
:1022200080B582B00190019890F82100012801D179
:10223000FFE74EE0019890F83C0007280FDCFFE72D
:102240000198816990F83C20104490F83D0088473F
:10225000019991F83C00013081F83C0039E0019887
:1022600090F83C0008280BD1FFE701988169012014
:102270008847019991F83C00013081F83C0027E043
:102280000198016B806B884208D2FFE70198816951
:1022900000208847019800F01FF814E00198816938
:1022A0000120009088470198C068804700980199F4
:1022B00081F821000198C06920B1FFE70198C06949
:1022C0008047FFE7FFE70199002081F83C00FFE726
:1022D000FFE702B080BD000082B0019001990020AC
:1022E00081F834008DF80300FFE79DF8030007280C
:1022F0001BDCFFE70199C86A8A6B805C91F8342087
:10230000D04000F001009DF80320114481F83D0009
:10231000019991F83400013081F83400FFE79DF80D
:10232000030001308DF80300DFE70199886B01306D
:102330008863002002B0704780B582B0009000989A
:1023400090F8200020B1FFE701208DF8070044E05D
:102350000098006820B9FFE702208DF807003CE0F4
:102360000098006920B9FFE703208DF8070034E0EA
:102370000098806920B9FFE704208DF807002CE061
:102380000098806820B9FFE705208DF8070024E059
:102390000098C06820B9FFE706208DF807001CE010
:1023A00000980068804720B1FFE707208DF80700FC
:1023B00013E000980069804720B1FFE708208DF8FE
:1023C00007000AE00099012081F82000009981F8B7
:1023D000210000208DF80700FFE79DF8070002B0FC
:1023E00080BD000080B582B040F21000C2F2000053
:1023F000FFF708F920B9FFE701208DF8070003E097
:1024000000208DF80700FFE79DF8070002B080BDAF
:1024100080B586B00021059104910391029101914C
:10242000009140F21000C2F2000040F20042C4F2FB
:102430000002026040F25372426010228260012268
:10244000C260016180218161FFF730F918B1FFE7B7
:10245000FEF71EF9FFE74FF48050029040F21000A3
:10246000C2F2000002A9FFF72BFA18B1FFE7FEF74E
:102470000FF9FFE700200090019040F21000C2F237
:1024800000006946FFF758F818B1FFE7FEF700F9BA
:10249000FFE7002006B080BD80B540F21000C2F218
:1024A0000000FFF793F9002080BD000080B540F2E6
:1024B0001000C2F20000FFF7D9F9002080BD000033
:1024C00080B58AB000200990089007900690FFE739
:1024D00041F21800C4F20200016841F008010160F5
:1024E000006800F0080005900598FFE740F60040FE
:1024F000C4F2010003904FF4805101910122029235
:10250000FEF772FA019A0299039806920791002148
:10251000049108910321099106A9FEF7E3F80498B4
:102520000AB080BD80B582B08DF807009DF8070025
:1025300050B9FFE740F60040C4F201004FF480516B
:102540000022FEF751FA09E040F60040C4F2010013
:102550004FF480510122FEF747FAFFE7002002B056
:1025600080BD000080B586B004900391029204986B
:1025700090F82000012804D0FFE701208DF8170013
:102580003AE0039820B9FFE702208DF8170033E006
:10259000029820B9FFE703208DF817002CE004987B
:1025A00090F82100012804D0FFE704208DF81700DF
:1025B00022E00499002081F82100FFE703980499A4
:1025C000C86202980499086304990020019081F878
:1025D000340004998863049981F83C000498FFF75B
:1025E0007BFE049880688047019804998969884730
:1025F00001988DF81700FFE79DF8170006B080BD21
:102600000FB47CB50C0009AD01D0611E00E00021C3
:10261000CDE90001064B6A462946089800F0DCF82F
:10262000002C02D0009A002111707CBC5DF814FBD4
:10263000072F000802E008C8121F08C1002AFAD1BB
:1026400070477047002001E001C1121F002AFBD132
:10265000704700002DE9FF5F82B00021DDE9043002
:10266000020DDDF840B0034318D044F61050A2F23A
:10267000FF3242431514119801281FD0A5EB0B001F
:10268000401C5FEA000A4FF000064E4FDFF8389119
:10269000B046504615D5CAF1000413E01198012444
:1026A0004AA3012801D16FEA0B010298119AC0E9EF
:1026B0000031C0E9024206B0BDE8F09FCBF1000056
:1026C000DFE704460021404A491842EB0450CDE9B7
:1026D000001012E0E00707D032463B46404649462C
:1026E000FDF720FE8046894632463B461046194695
:1026F000FDF718FE06460F466410002CEAD1DDE90E
:102700000401DDE90023BAF1000F06DAFDF70AFE45
:1027100042464B46FDF706FE05E0FDF775FE4246D4
:102720004B46FDF771FE04460E460022284BFDF78E
:10273000F3FE03D84FF0FF30014607E00022254B9F
:1027400020463146FDF747FDFDF7CDFE102409E098
:10275000002C0ADB0A220023FDF70CFD039B30321C
:102760001A55641E50EA0102F2D1641C039AC4F1A6
:1027700011031444119A012A03D0012208430DD1F8
:102780000AE0084304D000204FF0110B119072E7CB
:10279000A3EB0B056D1E0DE05B4504DD4FF0000261
:1027A00005F1010504E003DA4FF00002A5F101058F
:1027B000002AECD002981199C0E90231C0E9004525
:1027C00079E70000000014400000F03F30000000F6
:1027D0000000F0430000E03F2DE9FF4F95B09B461D
:1027E0008946064600250FE2252877D10024274692
:1027F000F84A0121059400E0044316F8013F203B0C
:1028000001FA03F01042F7D130782A2811D06FF086
:102810002F033078A0F13002092A16D8059A44F027
:10282000020402EB820203EB42021044761C059084
:10283000EFE759F8042B0592002A03DA504244F4DA
:102840000054059044F00204761C30782E2816D1EE
:1028500016F8010F44F004042A280DD06FF02F025F
:102860003078A0F13003092B09D807EB870302EB7E
:102870004303C718761CF3E759F8047B761C3078BD
:102880006C280FD006DC4C2817D068280DD06A2899
:1028900014D104E0742810D07A280FD10DE044F44C
:1028A00000140AE044F4801401E044F44014727807
:1028B000824202D104F58014761C761C307866289A
:1028C0000BD013DC582877D009DC002875D04528B8
:1028D000F6D04628F4D047281AD19DE118E06328A5
:1028E00035D0642879D0652812D195E1702873D04D
:1028F00008DC6728F1D069286FD06E280DD06F28CA
:1029000006D1B5E073282CD0752875D0782874D0FE
:102910005A46179990476D1C75E1C4F3025002287E
:1029200009D003280DD0D9F8001004280DD00D606F
:1029300009F1040967E1D9F80010EA17C1E900526A
:10294000F6E7D9F800100D80F2E70D70F0E719F8FE
:10295000041B8DF8001000208DF80100EA460120CC
:1029600003E059F804AB4FF0FF3061074FF000016E
:1029700002D40DE008F101018846B9420FDA804522
:10298000F8DB1AF808100029F4D108E008F1010179
:1029900088468142FADB1AF808100029F6D105981A
:1029A0005B46A0EB080721463846179A00F094FAD8
:1029B000284400EB080507E04DE029E10DE01AF896
:1029C000010B5A4617999047B8F10108F7D25B46B8
:1029D00021463846179A13E142E00A220092C4F3D6
:1029E00002524FF0000A022A08D059F804CB032AF9
:1029F0004FEAEC710AD00DE029E02AE009F1070165
:102A000021F00702F2E802C1914609E00FFA8CFCBE
:102A10004FEAEC71042A03D14FFA8CFC4FEAEC71B7
:102A2000002907DA0A460021DCF1000C61EB020103
:102A30002D2202E0220504D52B228DF8042001224C
:102A400003E0E20701D02022F7E7904659E00A218F
:102A500002E010220DE010214FF0000A00910BE07F
:102A600010224FF0000A44F004040827009203E00B
:102A700008224FF0000A0092C4F30252022A05D045
:102A800059F804CB0021032A08D009E009F1070115
:102A900021F00702F2E802C1914605E01FFA8CFC22
:102AA000042A01D10CF0FF0C4FF00008220728D5B2
:102AB000702806D0009B83F0100353EA0A0305D068
:102AC0000EE040228DF80420012208E05CEA0102B9
:102AD00006D030228DF804208DF8050002229046A1
:102AE000009B83F0080353EA0A030AD15CEA01025F
:102AF00001D1620705D530228DF804204FF001087E
:102B00007F1E582804D034A003900EA802900DE038
:102B100036A0F9E753466046009AFDF72BFB844642
:102B20000398825C0298401E029002705CEA0100E9
:102B3000F0D1029806A9081A00F1200A600702D510
:102B400024F4803400E00127574502DDA7EB0A009A
:102B500000E0002000EB0A01009005984144401A73
:102B60000590E00306D45B462146179A059800F0CD
:102B7000B3F90544002706E001A85A46C05D17993D
:102B800090476D1C7F1C4745F6DBE0030CD55B4688
:102B90002146179A059800F09FF9054404E030207B
:102BA0005A46179990476D1C0099481E00900029BD
:102BB000F5DC08E0029802995A460078491C029117
:102BC000179990476D1CBAF10001AAF1010AF1DCD6
:102BD00065E10000092801003031323334353637E1
:102BE0003839616263646566000000003031323359
:102BF00034353637383941424344454600000000F9
:102C000000F058F90544761C307800287FF4ECADCC
:102C100019B02846BDE8F08F620700D4062709F1F5
:102C2000070222F0070CFCE80223E14603F000480B
:102C30005FEA080C02D00FF2702C0DE05FEA045C32
:102C400002D50FF2682C07E05FEAC47C02D00FF2D5
:102C5000602C01E0AFF2700C4FF0FF3823F000431E
:102C6000CDF850C065280CD006DC452809D0462890
:102C70001DD047283DD13DE0662818D067287ED179
:102C800038E00021112F01DB112000E0781CCDE994
:102C9000000106A90EA8FFF7DDFCDDE90F010E9A81
:102CA00003910021009207F1010A04914DE04FF0D9
:102CB00000400097CDE9011006A90EA8FFF7CAFC55
:102CC000DDE90F0203920E9B11990022DDF80CA0A2
:102CD0000093049211B9791C00EB010AB7EB0A00CA
:102CE00004D4C0F1FF3007F1010A0490AAEB0700F9
:102CF000019044E0012F00DA01270021112F01DDAE
:102D0000112000E03846CDE9000106A90EA8FFF722
:102D1000A1FCDDE90F010E9A0391002104910092BC
:102D2000BA4621070CD40399514500DA8A46BAF114
:102D3000010F05DD009AAAF10101515C302908D08C
:102D4000B84202DA10F1040F06DA0121CDE90110D0
:102D500015E0AAF10101E9E7002805DC0499014426
:102D60000491AAEB000102E0411C514500DD8A46B6
:102D70000499401A401C01904FF000400290200737
:102D800004D40198504501DBCDF8048000208DF873
:102D90004F0002980DF14F07B0F1004F25D02B20C6
:102DA0000E9002984FF0020800280CDA4042029080
:102DB0002D200E9007E00A210298FDF7C5F9303169
:102DC000029007F8011DB8F10001A8F10108F2DC3A
:102DD00002980028EFD1791E0E980870307800F024
:102DE000200040F0450007F8020D12A8C01B00F1BA
:102DF00007081498007800B1012000EB0A0101983F
:102E000001EBE07105984144401A401E0590E00333
:102E100006D45B462146179A059800F05DF80544F4
:102E20001498007818B15A46179990476D1CE00322
:102E300024D55B462146179A059800F04DF80544C5
:102E40001CE00498002807DBDDE90301884203DD6C
:102E50000098405C179901E0179930205A46904736
:102E6000049805F10105401C04900198401E019052
:102E700004D12E205A46179990476D1CBAF10001D3
:102E8000AAF1010ADDDC05E017F8010B5A46179993
:102E900090476D1CB8F10001A8F10108F4DC5B4615
:102EA0002146179A0598ABE62D0000002B00000084
:102EB000200000002DE9F041044600251E4617467B
:102EC000880404D405E039462020B0476D1C641EF8
:102ED000F9D52846BDE8F0812DE9F04104460025EA
:102EE0001E469046C80301D5302700E020278804FD
:102EF00004D505E041463846B0476D1C641EF9D53F
:102F00002846BDE8F0814A68002A06D00A68531CAA
:102F10000B6010704868401E486070470000000059
:102F2000000000000102030406070809020304056B
:102F3000060708090A0B0C0D0E0F1010010225756B
:102F40002068656C6C6F0A00682F00080000002084
:102F50001000000034260008782F00081000002020
:102F600098040000442600080024F400010000003A
:082F7000100000000000000049
:04000005080000ED02
:00000001FF
