:020000040800F2
:100000009804002001010008751F0008011E000867
:10001000711F000899070008DD2200080000000099
:100020000000000000000000000000002520000883
:100030009D07000800000000E51F00087D20000863
:100040001B0100081B0100081B0100081B01000820
:100050001B0100081B0100081B0100081B01000810
:100060001B0100081B0100081B0100081B01000800
:100070001B0100081B0100081B0100081B010008F0
:100080001B0100081B0100081B0100081B010008E0
:100090001B0100081B0100081B0100081B010008D0
:1000A0001B0100081B0100081B0100081B010008C0
:1000B0001B010008F9200008000000001B010008D7
:1000C0001B01000800000000000000001B010008E8
:1000D000000000001B0100081B01000800000000D8
:1000E0001B0100081B0100081B010008DFF80CD0F1
:1000F00000F0B2FA00480047D92300089804002015
:100100000648804706480047FEE7FEE7FEE7FEE7B1
:10011000FEE7FEE7FEE7FEE7FEE7FEE7F520000864
:10012000ED000008D2B201E000F8012B491EFBD21D
:1001300070470022F6E710B513460A4604461946F2
:10014000FFF7F0FF204610BD30B480EA010202F054
:10015000004530F0004221F0004013D090B1C30DB3
:10016000D40DC2F31601C0F31600E41A41F40001E5
:1001700040F400027D34914201D3641C00E0490048
:10018000002C02DA30BC002070474FF4000000233E
:10019000914201D3891A034340084FEA4101F7D144
:1001A00051B1914202D14FF0004105E002D24FF02F
:1001B000010101E06FF0010103EBC450284430BCA1
:1001C00000F05AB8002801DBC0F10040002901DB33
:1001D000C1F10041814201D80120704700207047E1
:1001E00096230022114600F050B830B50B46014668
:1001F00000202022012409E021FA02F59D4205D3C6
:1002000003FA02F5491B04FA02F52844151EA2F16F
:100210000102F1DC30BD2DE9F05F05460020924679
:100220009B4688460646814640241BE028464146B8
:100230004746224600F031FA53465A46C01A9141C9
:1002400010D311461846224600F018FA2D1A67EB13
:1002500001084F4622460120002100F00FFA17EB5B
:1002600000094E41201EA4F10104DFDC484631465E
:100270002A464346BDE8F09F0029A8BF7047401CAE
:10028000490008BF20F00100704710B4B0FA80FCAC
:1002900000FA0CF050EA010404BF10BC704749B1E9
:1002A000CCF1200421FA04F411FA0CF118BF012159
:1002B00021430843A3EB0C01CB1D4FEA00614FEA39
:1002C000102042BF002010BC704700EBC350104408
:1002D0000029A4BF10BC7047401C490008BF20F093
:1002E000010010BC70472DE9FE4F804681EA0300F3
:1002F000C00F0C46009021F0004123F00045B8EB00
:100300000200A94105D24046214690461C460B46B4
:10031000024623F00040104347D0270DC7F30A00E0
:10032000C3F30A510290401A019040286BDAC3F3DC
:10033000130040F4801B0098924620B10023D2EBBA
:10034000030A63EB0B0B01985946C0F1400250467B
:1003500000F094F906460D4650465946019A00F0C1
:10036000ACF910EB08006141002487EA115284EADD
:10037000E7731A4340D0009A62B3019A012A4FEA08
:10038000075215DC001B61EB02014FF0004202EA4C
:100390000752CDE90042001C41F5801132462B4640
:1003A00000F0ACF903B0BDE8F08F40462146F9E714
:1003B000001B61EB0201001C41F5801300185B413A
:1003C0002018A2F5001747EB030140EAD570B619D3
:1003D0006D4111E06D084FEA360645EAC0754FEAF7
:1003E0000752001B61EB0201001C41F58011490816
:1003F0004FEA30000019514132462B4603B0BDE8A8
:10040000F04F00F06CB90098012240000023D0EBBF
:10041000020263EBE073009821464FEAE074B8EB08
:10042000000061EB0401E9E783F000435BE781F042
:10043000004158E72DE9FE4F81EA030404F000442F
:1004400021F0004100944FF0000B23F0004350EAEC
:1004500001045ED052EA03045BD0C3F30A54C1F333
:100460000A552C44A4F2F3340194A0FB0254C1F3C6
:10047000130141F48011C3F3130343F4801301FB10
:10048000024400FB034E840A970A44EA815447EA77
:100490008357A4FB076802958D0A05FB07854FEA81
:1004A000932C04FB0C542705029D4FEA065847EA9B
:1004B0001637B5EB08056EEB070C870E920E47EA70
:1004C000811742EA8312A7FB0201B6EB0B0164EB32
:1004D00000042B0D43EA0C335E1844EB1C50DA4643
:1004E0005146E7FB0201C5F313044FEA0B3343EA1D
:1004F00014534FEA0432019C43EA0603A4F10C04AE
:100500000294009CCDE900B400F0F8F803B0BDE817
:10051000F08F00200146F9E72DE9F04D81EA030450
:1005200004F0004B21F0004514464FF0000A23F080
:10053000004150EA050220D054EA01021DD0C5F363
:100540000A570246C5F31303C1F31300C1F30A5659
:1005500040F4801543F48013A7EB0608101BD64621
:1005600008F2FD3873EB050002D308F1010801E041
:1005700092185B41B8F1000F03DA00200146BDE894
:10058000F08D00204FF48011064684460EE0171BC4
:1005900073EB050705D3121B63EB050306434CEA17
:1005A000010C49084FEA300092185B4150EA0107FC
:1005B000EDD152EA030012D082EA040083EA050179
:1005C000084305D0101BAB4106D20122002306E0F0
:1005D00000224FF0004302E06FF0010253101AEBCB
:1005E00006004CEB085110EB0A0041EB0B01BDE893
:1005F000F04D00F074B8C1F30A52C1F3130140F298
:10060000FF3341F480119A4202DA0020014670471C
:1006100040F233439A42A2F2334202DC524200F0EB
:100620003CB800F02BB8000030B5041E71F1000496
:1006300004DB4FF00044404264EB0101141E73F1EF
:10064000000405DB1C464FF00043524263EB0403F9
:10065000994208BF904230BD064C074D06E0E06865
:1006600040F0010394E8070098471034AC42F6D3F9
:10067000FFF740FD0C3200082C320008202A04DB72
:10068000203A00FA02F1002070479140C2F12003A5
:1006900020FA03F3194390407047202A04DB203AE4
:1006A00021FA02F00021704721FA02F3D040C2F192
:1006B00020029140084319467047202A06DBCB17D9
:1006C000203A41FA02F043EAE07306E041FA02F30D
:1006D000D040C2F12002914008431946704710B53E
:1006E000141E73F1000408DA401C41F10001921855
:1006F0005B411A4301D120F0010010BD2DE9F04DFE
:1007000092469B4611B1B1FA81F202E0B0FA80F252
:1007100020329046FFF7B2FF04460F4640EA0A0037
:1007200041EA0B0153465A46084313D0114653EA97
:10073000010019D0C8F140025046FFF7AEFF054650
:100740000E46504659464246FFF798FF084305D0EB
:10075000012004E020463946BDE8F08D0020054325
:1007600046EAE0762C4337430A986305E40AA0EB97
:1007700008000022FD0A44EA47540A3002D500204E
:100780000146E9E7010510196941DDE9084500194D
:100790006941BDE8F04DA2E7FFE7FEE770470000C2
:1007A00081B0EFF3108072B60090FFE7FEE7000023
:1007B00080B584B0039000F0B7F9029003980190DF
:1007C0000198013048B1FFE740F20400C2F2000096
:1007D0000178019808440190FFE7FFE700F0A4F9D1
:1007E0000299401A0199884201D2FFE7F6E704B066
:1007F00080BD00008FB00E900D9100200C900890ED
:10080000FFE70D9800680C99C840002800F071813E
:10081000FFE70C99012088400B900D9800680B9918
:1008200008400A900A980B99884240F05E81FFE7E1
:100830000D9840680490002851D0FFE704980128E3
:100840003AD0FFE7049802283FD0FFE70498032836
:100850005FD0FFE70498112832D0FFE704981228F0
:1008600038D0FFE704980021C1F21101884236D048
:10087000FFE704980021C1F2120188422FD0FFE760
:1008800004980021C1F22101884228D0FFE7049892
:100890000021C1F22201884221D0FFE70498002103
:1008A000C1F2310188421AD0FFE704980021C1F259
:1008B0003201884213D02FE00D98C06808902CE0D8
:1008C0000D98C0680430089027E00D98C068083083
:1008D000089022E00D98C0680C3008901DE00D983B
:1008E000806818B9FFE70420089011E00D9880682F
:1008F000012806D1FFE7082008900B980E9908619F
:1009000005E0082008900B980E994861FFE7FFE783
:1009100003E00020089000E0FFE70A98FF2803D8D2
:10092000FFE70E98039003E00E9804300390FFE772
:10093000039807900A98FF2804D8FFE70C988000D6
:10094000029006E00C996FF01F0000EB810002900E
:10095000FFE70298069007980068069A0F219140D9
:100960008843089991400843079908600D98C07919
:10097000C006002840F1B880FFE7FFE741F2180009
:10098000C4F20200016841F001010160006800F05A
:10099000010005900598FFE70C9820F0030008215E
:1009A000C4F20101405809900C9800F00300810046
:1009B0000F2000FA01F10998884309900E9840F63B
:1009C0000001C4F20101884203D1FFE70020019039
:1009D00018E00E9840F60041C4F20101884203D1AC
:1009E000FFE7012000900AE00E9941F20002C4F2F4
:1009F00001020320914208BF02200090FFE7009807
:100A00000190FFE701980C9901F00301890000FAB9
:100A100001F109980843099009980C9921F0030104
:100A20000822C4F2010288500D988079C00600287F
:100A300009D5FFE70A9A40F20841C4F201010868AB
:100A40001043086008E00A9A40F20841C4F201012C
:100A5000086890430860FFE70D98807980060028B9
:100A600009D5FFE70A9A40F20C41C4F20101086877
:100A70001043086008E00A9A40F20C41C4F20101F8
:100A8000086890430860FFE70D9880798007002888
:100A900009D5FFE70A9A40F20441C4F2010108684F
:100AA0001043086008E00A9A40F20441C4F20101D0
:100AB000086890430860FFE70D988079C00748B147
:100AC000FFE70A9A40F20041C4F2010108681043AE
:100AD000086008E00A9A40F20041C4F20101086887
:100AE00090430860FFE7FFE7FFE70C9801300C90A8
:100AF00087E60FB07047000082B00190ADF8021099
:100B00008DF801209DF8010028B1FFE7BDF8020033
:100B10000199086105E0BDF802000004019908612F
:100B2000FFE702B07047000040F29400C2F20000FC
:100B30000068704740F20400C2F20000027840F200
:100B40009401C2F200010868104408607047000078
:100B500080B542F20001C4F20201086840F01000C2
:100B60000860032000F090F80F2000F005F800F076
:100B70003BF8002080BD000080B582B0009040F2BC
:100B80000000C2F20000006840F20401C2F200015D
:100B90000A784FF47A71B1FBF2F1B0FBF1F000F09A
:100BA00043FD20B1FFE701208DF8070018E0009811
:100BB0000F280DD8FFE700994FF0FF30002200F01A
:100BC00049F8009840F20801C2F20001086003E011
:100BD00001208DF8070003E000208DF80700FFE7F3
:100BE0009DF8070002B080BD82B0FFE741F2180017
:100BF000C4F20200016841F001010160006800F0E8
:100C0000010001900198FFE7FFE741F21C00C4F2E8
:100C10000200016841F080510160006800F08050DE
:100C200000900098FFE702B07047000080B582B0E6
:100C30008DF807009DF9070001F052FB02B080BD5E
:100C400080B582B08DF807009DF9070001F064FBC4
:100C500002B080BD80B586B08DF817000491039274
:100C60000020029001F070FB02909DF917000190A6
:100C700002980499039A01F07FF90146019801F066
:100C80006BFB06B080BD000080B582B0019001987A
:100C900001F084FB02B080BD80B584B00290019168
:100CA000029820B9FFE701208DF80F001BE10198A1
:100CB00042F20001C4F20201096801F00701884212
:100CC00016D9FFE742F20000C4F20200016821F0E9
:100CD0000701019A11430160006800F007000199C3
:100CE000884204D0FFE701208DF80F00FBE0FFE70A
:100CF00002980078800700282AD5FFE7029800783C
:100D00004007002809D5FFE741F20401C4F20201BF
:100D1000086840F4E0600860FFE702980078000788
:100D2000002809D5FFE741F20401C4F20201086876
:100D300040F460500860FFE741F20401C4F2020190
:100D4000086820F0F000029A926810430860FFE7FC
:100D500002980078C007002860D0FFE7029840683A
:100D600001280ED1FFE741F20000C4F20200006842
:100D70008003002804D4FFE701208DF80F00B2E0C3
:100D800021E00298406802280ED1FFE741F20000FE
:100D9000C4F2020000688001002804D4FFE70120AB
:100DA0008DF80F009FE00DE041F20000C4F2020058
:100DB00000688007002804D4FFE701208DF80F00A9
:100DC00091E0FFE7FFE741F20401C4F20201086885
:100DD00020F00300029A526810430860FFF7A4FE57
:100DE0000090FFE741F20400C4F20200006800F046
:100DF0000C0002994968B0EB810F0ED0FFE7FFF7B6
:100E000093FE0099401A41F28931884204D3FFE7EA
:100E100003208DF80F0066E0E4E7FFE7019842F257
:100E20000001C4F20201096801F00701884216D2EC
:100E3000FFE742F20000C4F20200016821F007015E
:100E4000019A11430160006800F00700019988428F
:100E500004D0FFE701208DF80F0044E0FFE702987F
:100E60000078400700280CD5FFE741F20401C4F2E6
:100E70000201086820F4E060029AD268104308601A
:100E8000FFE702980078000700280DD5FFE741F240
:100E90000401C4F20201086820F46050029A126949
:100EA00040EAC2000860FFE700F022F841F20401C6
:100EB000C4F202010968C9B20A0943F2E011C0F69E
:100EC0000001895CC84040F20001C2F200010860E4
:100ED00040F20800C2F200000068FFF74DFE00205B
:100EE0008DF80F00FFE79DF80F0004B080BD0000F3
:100EF00086B000200590049003900290019041F28A
:100F00000400C4F2020000680590059800F00C008F
:100F10000146009100283FD0FFE70098042804D044
:100F2000FFE70098082806D037E041F20020C0F221
:100F30007A00019037E00598C0F3834143F2F01046
:100F4000C0F60000405C02909DF81600C007C0B1DA
:100F5000FFE741F20400C4F202000068C0F3404120
:100F600043F20020C0F60000405C0490029841F279
:100F70000021C0F27A0148430499B0FBF1F00390DC
:100F800007E0029840F60011C0F23D01484303908B
:100F9000FFE70398019006E0FFE741F20020C0F26E
:100FA0007A000190FFE7019806B0704780B586B0DF
:100FB0000490049820B9FFE701208DF817002EE374
:100FC00004980078C007002800F0AE80FFE741F2E7
:100FD0000400C4F20200006800F00C00042813D0E2
:100FE000FFE741F20400C4F20200006800F00C00C8
:100FF00008281BD1FFE741F20400C4F20200006898
:10100000C003002812D5FFE741F20000C4F202003D
:1010100000688003002808D5FFE70498406820B9DD
:10102000FFE701208DF81700F9E27CE0FFE7049864
:101030004068B0F5803F09D1FFE741F20001C4F2FA
:101040000201086840F48030086032E0049840688B
:1010500068B9FFE741F20001C4F20201086820F418
:1010600080300860086820F48020086020E0049840
:101070004068B0F5A02F0DD1FFE741F20001C4F2A6
:101080000201086840F480200860086840F480305D
:1010900008600CE041F20001C4F20201086820F48B
:1010A00080300860086820F480200860FFE7FFE7D0
:1010B000FFE7FFE704984068D0B1FFE7FFF734FD92
:1010C0000390FFE741F20000C4F2020000688003D1
:1010D00000280CD4FFE7FFF727FD0399401A652885
:1010E00004D3FFE703208DF8170098E2EAE719E040
:1010F000FFF71AFD0390FFE741F20000C4F202007F
:101100000068800300280CD5FFE7FFF70DFD039969
:10111000401A652804D3FFE703208DF817007EE20C
:10112000EAE7FFE7FFE7FFE7049800788007002879
:1011300040F18D80FFE741F20400C4F20200006834
:1011400010F00C0F13D0FFE741F20400C4F20200CC
:10115000006800F00C00082829D1FFE741F20400E4
:10116000C4F202000068C003002820D4FFE741F267
:101170000000C4F2020000688007002809D5FFE7DC
:1011800004980069012804D0FFE701208DF81700BA
:1011900045E241F20001C4F20201086820F0F800C3
:1011A000049A526940EAC2000860FFE74EE00498E2
:1011B000006958B3FFE70021C4F242210120086012
:1011C000FFF7B2FC0390FFE741F20000C4F2020017
:1011D0000068800700280CD4FFE7FFF7A5FC0399FF
:1011E000401A032804D3FFE703208DF8170016E206
:1011F000EAE741F20001C4F20201086820F0F800B9
:10120000049A526940EAC20008601EE00021C4F25C
:10121000422100200860FFF787FC0390FFE741F2BE
:101220000000C4F202000068800700280CD5FFE728
:10123000FFF77AFC0399401A032804D3FFE7032041
:101240008DF81700EBE1EAE7FFE7FFE7FFE7049817
:1012500000780007002848D5FFE70498806918B394
:10126000FFE740F28041C4F2422101200860FFF70D
:101270005BFC0390FFE741F22400C4F20200006827
:10128000800700280CD4FFE7FFF74EFC0399401AB3
:10129000032804D3FFE703208DF81700BFE1EAE736
:1012A000012000F0A1FE1FE040F28041C4F2422183
:1012B00000200860FFF738FC0390FFE741F22400AC
:1012C000C4F202000068800700280CD5FFE7FFF792
:1012D0002BFC0399401A032804D3FFE703208DF861
:1012E00017009CE1EAE7FFE7FFE704980078400772
:1012F000002840F1D880FFE700208DF8070041F278
:101300001C00C4F202000068C000002813D4FFE7EC
:10131000FFE741F21C00C4F20200016841F0805175
:101320000160006800F0805000900098FFE7012005
:101330008DF80700FFE747F20000C4F200000068E4
:10134000C005002822D4FFE747F20001C4F20001E3
:10135000086840F480700860FFF7E6FB0390FFE741
:1013600047F20000C4F200000068C00500280CD459
:10137000FFE7FFF7D9FB0399401A652804D3FFE77D
:1013800003208DF817004AE1EAE7FFE7FFE704983A
:10139000C068012809D1FFE741F22001C4F202012F
:1013A000086840F00100086031E00498C06868B93E
:1013B000FFE741F22001C4F20201086820F00100B9
:1013C0000860086820F0040008601FE00498C06806
:1013D00005280DD1FFE741F22001C4F2020108689F
:1013E00040F004000860086840F0010008600CE06C
:1013F00041F22001C4F20201086820F001000860F7
:10140000086820F004000860FFE7FFE7FFE7FFE758
:101410000498C068E0B1FFE7FFF786FB0390FFE7A1
:1014200041F22000C4F202000068800700280ED4B8
:10143000FFE7FFF779FB0399401A41F289318842AF
:1014400004D3FFE703208DF81700E8E0E8E71BE08E
:10145000FFF76AFB0390FFE741F22000C4F20200AD
:101460000068800700280ED5FFE7FFF75DFB0399B2
:10147000401A41F28931884204D3FFE703208DF8F6
:101480001700CCE0E8E7FFE79DF80700012809D145
:10149000FFE741F21C01C4F20201086820F080500D
:1014A0000860FFE7FFE70498C069002800F0B380F8
:1014B000FFE741F20400C4F20200006800F00C00F3
:1014C000082800F08280FFE70498C06902285CD1F8
:1014D000FFE76021C4F2422100200860FFF724FBEF
:1014E0000390FFE741F20000C4F2020000688001AF
:1014F00000280CD5FFE7FFF717FB0399401A0328D4
:1015000004D3FFE703208DF8170088E0EAE704988A
:10151000006AB0F5803F0CD1FFE741F20401C4F24C
:101520000201086820F40030049A926810430860B1
:10153000FFE741F20401C4F20201086820F47410CC
:10154000049B1A6A5B6A1A43104308606021C4F264
:10155000422101200860FFF7E7FA0390FFE741F21C
:101560000000C4F202000068800100280CD4FFE7EC
:10157000FFF7DAFA0399401A032804D3FFE70320A0
:101580008DF817004BE0EAE71EE06021C4F242212B
:1015900000200860FFF7C8FA0390FFE741F200005F
:1015A000C4F202000068800100280CD5FFE7FFF7B5
:1015B000BBFA0399401A032804D3FFE703208DF8F0
:1015C00017002CE0EAE7FFE724E00498C06901284F
:1015D00004D1FFE701208DF8170020E041F204005C
:1015E000C4F2020000680290029800F4803004996E
:1015F000096A884208D1FFE7029800F47010049944
:10160000496A884204D0FFE701208DF8170006E000
:10161000FFE7FFE7FFE700208DF81700FFE79DF8E1
:10162000170006B080BD000080B582B0019001981F
:1016300000F0FAFC02B080BD81B0009001B07047AC
:1016400081B0009001B0704785B003900291FFE730
:10165000039890F83C00012804D1FFE702208DF8A0
:10166000130052E00399012081F83C00FFE7FFE7F7
:101670000399022081F83D000398006840680190BA
:101680000398006880680090019820F07000019035
:10169000029801680198084301900198039909682C
:1016A00048600398006842F60041C4F20101884294
:1016B0000FD0FFE703980068B0F1804F09D0FFE733
:1016C0000398006840F20041C4F2000188420ED144
:1016D000FFE7009820F08000009002984168009891
:1016E000084300900098039909688860FFE7039910
:1016F000012081F83D00FFE70399002081F83C00BC
:10170000FFE700208DF81300FFE79DF8130005B0F8
:101710007047000080B582B001900199022081F8E5
:101720003D00FFE701980068006A41F2111108428C
:1017300010D1FFE701980068006A40F24441084276
:1017400007D1FFE701980168086820F001000860F0
:10175000FFE7FFE7FFE7019800F07EF8019900201E
:1017600081F84600FFE70199002081F83E000199C9
:1017700081F83F00019981F84000019981F841000A
:10178000FFE7FFE70199002081F84200019981F805
:101790004300019981F84400019981F84500FFE771
:1017A0000199002081F83D00FFE70199002081F8B0
:1017B0003C00FFE7002002B080BD000080B582B091
:1017C0000090009820B9FFE701208DF807003FE066
:1017D000009890F83D0040B9FFE70099002081F89B
:1017E0003C00009800F052F8FFE70099022081F8D1
:1017F0003D00009951F8040B00F086FC009901208F
:1018000081F84600FFE70099012081F83E00009929
:1018100081F83F00009981F84000009981F841006B
:10182000FFE7FFE70099012081F84200009981F865
:101830004300009981F84400009981F84500FFE7D2
:101840000099012081F83D0000208DF80700FFE796
:101850009DF8070002B080BD80B582B0019001986C
:10186000006840F20041C4F2000188420CD1FFE759
:1018700041F21C01C4F20201086820F00200086075
:101880001D20FFF7D3F9FFE702B080BD80B584B01B
:1018900003900398006840F20041C4F200018842BE
:1018A00019D1FFE7FFE741F21C00C4F20200016812
:1018B00041F002010160006800F00200029002980D
:1018C000FFE71D20019000221146FFF7C3F90198A0
:1018D000FFF7B6F9FFE704B080BD000083B00190C8
:1018E000019890F83D00012804D0FFE701208DF811
:1018F0000B0038E00199022081F83D000198006852
:1019000042F60041C4F2010188420FD0FFE701987E
:101910000068B0F1804F09D0FFE70198006840F2FD
:101920000041C4F20001884212D1FFE7019800682B
:10193000806800F0070000900098062807D0FFE7B5
:1019400001980168086840F001000860FFE706E0C0
:1019500001980168086840F001000860FFE7002076
:101960008DF80B00FFE79DF80B0003B070470000F7
:1019700081B00090FFE700980068006A41F2111101
:10198000084210D1FFE700980068006A40F2444125
:10199000084207D1FFE700980168086820F00100BD
:1019A0000860FFE7FFE7FFE70099012081F83D00AD
:1019B000002001B07047000080B586B0049003910C
:1019C00000208DF80B00FFE7049890F83C000128F8
:1019D00004D1FFE702208DF81700ABE00499012045
:1019E00081F83C00FFE7FFE70499022081F83D0001
:1019F0000498006880680190019820F077000190B9
:101A0000019820F47F40019001980499096888604A
:101A1000039800680090002872D0FFE70098102813
:101A20006ED0FFE7009820286AD0FFE700983028A2
:101A300066D0FFE70098402855D0FFE7009850286F
:101A400037D0FFE70098602840D0FFE70098702863
:101A50000BD0FFE70098B0F5805F05D0FFE7009856
:101A6000B0F5005F16D052E055E004980068039B83
:101A70005A689968DB6800F0AFFB049800688068DA
:101A80000190019840F0770001900198049909684D
:101A9000886040E004980068039B5A689968DB6896
:101AA00000F09AFB04980168886840F480408860E0
:101AB00031E004980068039A5168D26800F0BCFBDA
:101AC00004980068502100F0A1FB24E0049800680D
:101AD000039A5168D26800F0D7FB0498006860212F
:101AE00000F094FB17E004980068039A5168D268EC
:101AF00000F0A2FB04980068402100F087FB0AE098
:101B0000049800680399096800F080FB03E0012055
:101B10008DF80B00FFE70499012081F83D00FFE7F5
:101B20000499002081F83C00FFE79DF80B008DF838
:101B30001700FFE79DF8170006B080BD81B0009048
:101B400001B0704780B582B00190019800680069CB
:101B500000F002010020B0EB510F28D0FFE7019800
:101B60000068C06800F002010020B0EB510F1DD0EA
:101B7000FFE7019801686FF00200086101990120F8
:101B80000877019800688069800720B1FFE7019815
:101B9000FFF7D4FF06E0019800F012F9019800F079
:101BA00013F9FFE7019900200877FFE7FFE70198A5
:101BB0000068006900F004010020B0EB910F29D00B
:101BC000FFE701980068C06800F004010020B0EB56
:101BD000910F1ED0FFE7019801686FF004000861C3
:101BE00001990220087701980068806910F4407F0D
:101BF00004D0FFE70198FFF7A1FF06E0019800F08D
:101C0000DFF8019800F0E0F8FFE70199002008777D
:101C1000FFE7FFE701980068006900F00801002075
:101C2000B0EBD10F28D0FFE701980068C06800F042
:101C300008010020B0EBD10F1DD0FFE7019801682B
:101C40006FF0080008610199042008770198006886
:101C5000C069800720B1FFE70198FFF76FFF06E03A
:101C6000019800F0ADF8019800F0AEF8FFE7019997
:101C700000200877FFE7FFE701980068006900F09F
:101C800010010020B0EB111F29D0FFE70198006878
:101C9000C06800F010010020B0EB111F1ED0FFE75C
:101CA000019801686FF01000086101990820087719
:101CB00001980068C06910F4407F04D0FFE70198E4
:101CC000FFF73CFF06E0019800F07AF8019800F079
:101CD0007BF8FFE7019900200877FFE7FFE701980D
:101CE00000680069C00780B1FFE701980068C0681C
:101CF000C00748B1FFE7019801686FF00100086173
:101D0000019800F065F8FFE7FFE7019800680069B7
:101D1000C1B20020B0EBD11F13D0FFE701980068DB
:101D2000C068C1B20020B0EBD11F09D0FFE7019815
:101D300001686FF0800008610198FFF77DFCFFE704
:101D4000FFE701980068006900F040010020B0EB57
:101D5000911F14D0FFE701980068C06800F04001AF
:101D60000020B0EB911F09D0FFE7019801686FF0E8
:101D700040000861019800F03FF8FFE7FFE7019895
:101D80000068006900F020010020B0EB511F14D062
:101D9000FFE701980068C06800F020010020B0EB68
:101DA000511F09D0FFE7019801686FF0200008611A
:101DB0000198FFF745FCFFE7FFE702B080BD000098
:101DC00081B0009001B0704781B0009001B07047C1
:101DD00080B582B00190019840F21001C2F200017A
:101DE000884207D1FFE740F25800C2F2000000F03D
:101DF000C3FCFFE702B080BD81B0009001B0704726
:101E0000FFE7FEE780B58EB000200D900C900B90A0
:101E10000A90FFE741F21800C4F20200016841F0A5
:101E200010010160006800F0100009900998FFE7B8
:101E3000FFE741F21800C4F20200016841F02001FE
:101E40000160006800F0200008900898FFE7FFE7B5
:101E500041F21800C4F20200016841F0080101607B
:101E6000006800F0080007900798FFE741F20000C3
:101E7000C4F2010000904FF400510291002203923D
:101E8000FEF73AFE40F60040C4F2010005904FF420
:101E90008051019101220492FEF72EFE0098029BD0
:101EA0000399049A0A930B920C9102210D910AA9AD
:101EB0000691FEF79FFC019B049A059806990A93E8
:101EC0000B920C9203220D92FEF794FCDDF808C0F1
:101ED000039B049A05980699CDF828C00B930C92A1
:101EE000FEF788FC0EB080BD80B586B0002105915C
:101EF0000491039102910191009140F21000C2F20D
:101F0000000040F20042C4F20002026040F241329E
:101F10004260102282600122C260016180218161E1
:101F2000FFF74CFC18B1FFE7FEF73AFCFFE74FF470
:101F30008050029040F21000C2F2000002A9FFF7A8
:101F40003BFD18B1FFE7FEF72BFCFFE700200090F8
:101F5000019040F21000C2F200006946FFF774FBE6
:101F600018B1FFE7FEF71CFCFFE706B080BD0000DC
:101F7000FFE7FEE7FFE7FEE788B0079006910592CE
:101F8000079800F0070004900498C0F107000528A6
:101F900003D3FFE70420019004E00498C0F1070098
:101FA0000190FFE70198039004980430062803D8B5
:101FB000FFE70020009003E0049803380090FFE75B
:101FC0000098029006980399012202FA01F1013962
:101FD0000840029B984005999A40013A11400843F5
:101FE00008B070477047000082B00190019840F23D
:101FF0000001C2F200010968C90844F6D352C1F2D7
:102000006202A1FB0221890948430090FFE700BF5B
:10201000FFE70098411E00910028F8D1FFE702B0C9
:10202000704700007047000080B582B000900098B3
:102030000138B0F1807F03D3FFE70120019019E060
:10204000009801384EF21401CEF2000108604FF002
:10205000FF300F2100F080F94EF21801CEF200019E
:10206000002008604EF21002CEF20002072111603B
:102070000190FFE7019802B080BD000080B5FEF737
:1020800059FD80BD80B590B006A800902821FEF7CC
:1020900050F800980023059304930393029301934F
:1020A000012206924FF48031079108930A9202228E
:1020B0000D920E914FF4E0110F91FEF777FF18B1DA
:1020C000FFE7FEF76DFBFFE70F2001900221029171
:1020D000902003904FF4A06004900020059001A888
:1020E000FEF7DAFD18B1FFE7FEF75AFBFFE710B085
:1020F00080BD00007047000080B540F21000C2F2C1
:102100000000FFF71FFD80BD83B00290019102988F
:1021100000680090029842F60041C4F20101884232
:102120000DD0FFE70298B0F1804F08D0FFE702988A
:1021300040F20041C4F2000188420AD1FFE7009852
:1021400020F07000009001984168009808430090CA
:10215000FFE7029842F60041C4F2010188420DD027
:10216000FFE70298B0F1804F08D0FFE7029840F2F5
:102170000041C4F2000188420AD1FFE7009820F430
:10218000407000900198C168009808430090FFE7F4
:10219000009820F080000199496908430090009858
:1021A00002990860019880680299C86201980068E5
:1021B00002998862029842F60041C4F20101884205
:1021C00005D1FFE70198006902990863FFE70299CA
:1021D0000120486103B0704785B0049003910292DA
:1021E0000193049880680090009820F47F4000904C
:1021F00003980299019A41EA022101430098084399
:10220000009000980499886005B0704783B00290F0
:102210000191029880680090009820F07000009072
:1022200001980099084340F0070000900098029937
:10223000886003B07047000085B00490039102925B
:102240000498006A00900499086A20F0010008626E
:10225000049880690190019820F0F00001900299A3
:10226000019840EA01100190009820F00A000090C7
:102270000399009808430090019804998861009898
:102280000499086205B0704785B0049003910292EA
:102290000498006A00900499086A20F0100008620F
:1022A000049880690190019820F47040019002998F
:1022B000019840EA01300190009820F0A0000090C1
:1022C0000399009840EA01100090019804998861F0
:1022D00000980499086205B070470000FFE7FEE728
:1022E00081B08DF803009DF90300002812D4FFE7A8
:1022F0009DF9031001F01F02012090404A094EF29F
:102300008011CEF2000141F82200BFF34F8FBFF3DE
:102310006F8FFFE701B0704781B08DF803009DF922
:10232000030000280ED4FFE79DF9031001F01F02FF
:10233000012090404A094EF20011CEF2000141F80E
:102340002200FFE701B070474EF60C50CEF20000BD
:102350000068C0F30220704782B08DF8070000913A
:102360009DF9070000280AD4FFE7009800019DF9B5
:1023700007104EF20042CEF2000288540BE00098A3
:1023800000019DF8071001F00F014EF61452CEF235
:1023900000028854FFE702B07047000083B002904B
:1023A000029800F0070000904EF60C51CEF20001AA
:1023B0000868019001984FF6FF02104001900198C3
:1023C000009A40EA02200022C0F2FA521043019023
:1023D0000198086003B0704780B5B6B00020359012
:1023E000FEF7B6FBFFF74EFEFFF70CFDFFF77CFD97
:1023F0004FF4FA60FEF7DCF940F25800C2F2000038
:1024000042F21161C0F60001016042F2E551C0F6EE
:102410000001416042F29962C0F60002426142F25C
:10242000D562C0F600028260C16042F23971C0F626
:10243000000101614FF4165100F05AF818B1FFE79E
:10244000FEF7AEF9FFE7FFE740F25800C2F20000E6
:10245000007F01281AD1FFE7FEF766FB034643F22F
:102460000222C0F6000203A80190C82100F02AFA57
:1024700001990290029A40F25800C2F2000000F066
:10248000C9F94FF47A70FEF793F9FFE7DCE7000033
:1024900082B001900199002081F828008DF8030096
:1024A000FFE79DF8030007281BDCFFE70199086A96
:1024B000CA6A805C91F82820D04000F001009DF8A5
:1024C0000320114481F83100019991F8280001306E
:1024D00081F82800FFE79DF8030001308DF8030024
:1024E000DFE70199C86A0130C862002002B0704776
:1024F00080B584B0029001910298407F20B1FFE73F
:1025000001208DF80F0069E00298006820B9FFE70C
:1025100002208DF80F0061E00298806820B9FFE783
:1025200003208DF80F0059E00298006920B9FFE7F9
:1025300004208DF80F0051E00298406920B9FFE7B0
:1025400005208DF80F0049E001984AF62021C0F2DD
:102550004401884218D8FFE701994AF62022C0F2C8
:102560004402B2FBF1F000FB1120FDF739FE45F209
:102570004041C4F68921FDF7E7FD0021C4F2A00126
:10258000FDF720FE20B9FFE709208DF80F0025E0B8
:10259000019802998861FFE70298016882694AF60A
:1025A0002020C0F24400B0FBF2F0884720B1FFE7E2
:1025B00007208DF80F0011E002988068804720B155
:1025C000FFE708208DF80F0008E002990120487706
:1025D0000299087700208DF80F00FFE79DF80F00A3
:1025E00004B080BD80B582B040F21000C2F200009D
:1025F000FFF790F820B9FFE701208DF8070003E00E
:1026000000208DF80700FFE79DF8070002B080BDAD
:1026100080B588B00790002106910591049103913F
:102620000291019140F21000C2F2000040F200421B
:10263000C4F200020260079A426010228260012206
:10264000C260016180218161FFF7B8F818B1FFE72E
:10265000FEF7A6F8FFE74FF48050039040F2100019
:10266000C2F2000003A9FFF7A7F918B1FFE7FEF7D0
:1026700097F8FFE700200190029040F21000C2F2AC
:10268000000001A9FEF7E0FF18B1FFE7FEF788F8A8
:10269000FFE7002008B080BD80B540F21000C2F214
:1026A0000000FFF71BF9FFE740F21000C2F2000044
:1026B00000680069C00708B9FFE7F5E740F21000BD
:1026C000C2F2000002686FF001011161FFF750F9DA
:1026D000002080BD80B58AB0002009900890079046
:1026E0000690FFE741F21800C4F20200016841F0D1
:1026F00008010160006800F0080005900598FFE7F8
:1027000040F60040C4F2010003904FF48051019163
:1027100001220292FEF7F0F9019A029903980692BB
:1027200007910021049108910321099106A9FEF760
:1027300061F804980AB080BD80B582B08DF80700BA
:102740009DF8070050B9FFE740F60040C4F20100D1
:102750004FF480510022FEF7CFF909E040F6004027
:10276000C4F201004FF480510122FEF7C5F9FFE7E2
:10277000002002B080BD000080B582B001900198B9
:10278000007F012801D1FFE742E0019890F8300076
:1027900007280FDCFFE70198016990F8302010440A
:1027A00090F831008847019991F83000013081F8A4
:1027B00030002DE0019890F8300008280BD1FFE799
:1027C0000198016901208847019991F83000013092
:1027D00081F830001BE00198416AC06A884208D243
:1027E000FFE701980169002088470198FFF750FE34
:1027F00008E001980169012000908847009801993C
:102800000877FFE70199002081F83000FFE7FFE734
:1028100002B080BD80B584B0029001910092029810
:10282000407F012804D0FFE701208DF80F0044E02D
:10283000019820B9FFE702208DF80F003DE00098D5
:1028400020B9FFE703208DF80F0036E00298007FE3
:10285000012804D0FFE704208DF80F002DE0029935
:1028600000200877FFE70198029908620098029912
:1028700048620299002081F828000299C8620299F2
:1028800081F83000029A4FF00131C2F83510C2F8D9
:102890003110029909698847FFE70298007F0128F3
:1028A00007D0FFE70298406980470298FFF764FF6E
:1028B000F3E700208DF80F00FFE79DF80F0004B04C
:1028C00080BD00000FB47CB50C0009AD01D0611EC5
:1028D00000E00021CDE90001064B6A462946089830
:1028E00000F0DCF8002C02D0009A002111707CBCB2
:1028F0005DF814FBCB31000802E008C8121F08C1C4
:10290000002AFAD170477047002001E001C1121F70
:10291000002AFBD1704700002DE9FF5F82B0002143
:10292000DDE90430020DDDF840B0034318D044F671
:102930001050A2F2FF3242431514119801281FD003
:10294000A5EB0B00401C5FEA000A4FF000064E4F5B
:10295000DFF83891B046504615D5CAF1000413E0AF
:10296000119801244AA3012801D16FEA0B010298B2
:10297000119AC0E90031C0E9024206B0BDE8F09FFB
:10298000CBF10000DFE704460021404A491842EB42
:102990000450CDE9001012E0E00707D032463B4674
:1029A00040464946FDF746FD8046894632463B464D
:1029B00010461946FDF73EFD06460F466410002CF2
:1029C000EAD1DDE90401DDE90023BAF1000F06DAFE
:1029D000FDF730FD42464B46FDF72CFD05E0FDF7C7
:1029E0009BFD42464B46FDF797FD04460E460022EE
:1029F000284BFDF719FE03D84FF0FF30014607E0E2
:102A00000022254B20463146FDF76DFCFDF7F3FD16
:102A1000102409E0002C0ADB0A220023FDF7FBFB4F
:102A2000039B30321A55641E50EA0102F2D1641C35
:102A3000039AC4F111031444119A012A03D001220C
:102A400008430DD10AE0084304D000204FF0110BD9
:102A5000119072E7A3EB0B056D1E0DE05B4504DDE5
:102A60004FF0000205F1010504E003DA4FF0000227
:102A7000A5F10105002AECD002981199C0E90231B4
:102A8000C0E9004579E70000000014400000F03F75
:102A9000300000000000F0430000E03F2DE9FF4F50
:102AA00095B09B468946064600250FE2252877D13A
:102AB00000242746F84A0121059400E0044316F853
:102AC000013F203B01FA03F01042F7D130782A2869
:102AD00011D06FF02F033078A0F13002092A16D8F8
:102AE000059A44F0020402EB820203EB4202104416
:102AF000761C0590EFE759F8042B0592002A03DABB
:102B0000504244F40054059044F00204761C30789E
:102B10002E2816D116F8010F44F004042A280DD0EF
:102B20006FF02F023078A0F13003092B09D807EBA2
:102B3000870302EB4303C718761CF3E759F8047BBD
:102B4000761C30786C280FD006DC4C2817D068280B
:102B50000DD06A2814D104E0742810D07A280FD13F
:102B60000DE044F400140AE044F4801401E044F45D
:102B700040147278824202D104F58014761C761CCF
:102B8000307866280BD013DC582877D009DC002871
:102B900075D04528F6D04628F4D047281AD19DE1B3
:102BA00018E0632835D0642879D0652812D195E1E2
:102BB000702873D008DC6728F1D069286FD06E28A0
:102BC0000DD06F2806D1B5E073282CD0752875D0AC
:102BD000782874D05A46179990476D1C75E1C4F354
:102BE0000250022809D003280DD0D9F8001004287B
:102BF0000DD00D6009F1040967E1D9F80010EA175A
:102C0000C1E90052F6E7D9F800100D80F2E70D7027
:102C1000F0E719F8041B8DF8001000208DF8010072
:102C2000EA46012003E059F804AB4FF0FF3061079A
:102C30004FF0000102D40DE008F101018846B942CD
:102C40000FDA8045F8DB1AF808100029F4D108E003
:102C500008F1010188468142FADB1AF808100029C0
:102C6000F6D105985B46A0EB080721463846179A2F
:102C700000F094FA284400EB080507E04DE029E154
:102C80000DE01AF8010B5A4617999047B8F1010860
:102C9000F7D25B4621463846179A13E142E00A22F2
:102CA0000092C4F302524FF0000A022A08D059F8E9
:102CB00004CB032A4FEAEC710AD00DE029E02AE0A8
:102CC00009F1070121F00702F2E802C1914609E08B
:102CD0000FFA8CFC4FEAEC71042A03D14FFA8CFCFA
:102CE0004FEAEC71002907DA0A460021DCF1000CFA
:102CF00061EB02012D2202E0220504D52B228DF882
:102D00000420012203E0E20701D02022F7E79046E9
:102D100059E00A2102E010220DE010214FF0000AD4
:102D200000910BE010224FF0000A44F00404082741
:102D3000009203E008224FF0000A0092C4F302520E
:102D4000022A05D059F804CB0021032A08D009E053
:102D500009F1070121F00702F2E802C1914605E0FE
:102D60001FFA8CFC042A01D10CF0FF0C4FF0000874
:102D7000220728D5702806D0009B83F0100353EA61
:102D80000A0305D00EE040228DF80420012208E05D
:102D90005CEA010206D030228DF804208DF805008F
:102DA00002229046009B83F0080353EA0A030AD1EB
:102DB0005CEA010201D1620705D530228DF80420BA
:102DC0004FF001087F1E582804D034A003900EA8AD
:102DD00002900DE036A0F9E753466046009AFDF7F1
:102DE0001AFA84460398825C0298401E0290027090
:102DF0005CEA0100F0D1029806A9081A00F1200A45
:102E0000600702D524F4803400E00127574502DD35
:102E1000A7EB0A0000E0002000EB0A0100900598F3
:102E20004144401A0590E00306D45B462146179AB8
:102E3000059800F0B3F90544002706E001A85A46BA
:102E4000C05D179990476D1C7F1C4745F6DBE0037A
:102E50000CD55B462146179A059800F09FF905446A
:102E600004E030205A46179990476D1C0099481E7F
:102E700000900029F5DC08E0029802995A46007893
:102E8000491C0291179990476D1CBAF10001AAF1F3
:102E9000010AF1DC65E1000009280100303132331C
:102EA0003435363738396162636465660000000086
:102EB0003031323334353637383941424344454670
:102EC0000000000000F058F90544761C3078002816
:102ED0007FF4ECAD19B02846BDE8F08F620700D44E
:102EE000062709F1070222F0070CFCE80223E1465D
:102EF00003F000485FEA080C02D00FF2702C0DE0DE
:102F00005FEA045C02D50FF2682C07E05FEAC47C3C
:102F100002D00FF2602C01E0AFF2700C4FF0FF38DE
:102F200023F00043CDF850C065280CD006DC4528BE
:102F300009D046281DD047283DD13DE0662818D04D
:102F400067287ED138E00021112F01DB112000E03D
:102F5000781CCDE9000106A90EA8FFF7DDFCDDE92C
:102F60000F010E9A03910021009207F1010A0491CA
:102F70004DE04FF000400097CDE9011006A90EA8E2
:102F8000FFF7CAFCDDE90F0203920E9B11990022A4
:102F9000DDF80CA00093049211B9791C00EB010A32
:102FA000B7EB0A0004D4C0F1FF3007F1010A049026
:102FB000AAEB0700019044E0012F00DA012700216D
:102FC000112F01DD112000E03846CDE9000106A9EE
:102FD0000EA8FFF7A1FCDDE90F010E9A0391002175
:102FE00004910092BA4621070CD40399514500DAA6
:102FF0008A46BAF1010F05DD009AAAF10101515C80
:10300000302908D0B84202DA10F1040F06DA0121A3
:10301000CDE9011015E0AAF10101E9E7002805DC7E
:10302000049901440491AAEB000102E0411C5145BE
:1030300000DD8A460499401A401C01904FF0004080
:103040000290200704D40198504501DBCDF804809C
:1030500000208DF84F0002980DF14F07B0F1004F9E
:1030600025D02B200E9002984FF0020800280CDA91
:10307000404202902D200E9007E00A210298FDF7B1
:10308000B4F83031029007F8011DB8F10001A8F141
:103090000108F2DC02980028EFD1791E0E98087022
:1030A000307800F0200040F0450007F8020D12A82B
:1030B000C01B00F107081498007800B1012000EB54
:1030C0000A01019801EBE07105984144401A401E45
:1030D0000590E00306D45B462146179A059800F058
:1030E0005DF805441498007818B15A46179990472E
:1030F0006D1CE00324D55B462146179A059800F025
:103100004DF805441CE00498002807DBDDE90301C5
:10311000884203DD0098405C179901E01799302040
:103120005A469047049805F10105401C0490019807
:10313000401E019004D12E205A46179990476D1CCD
:10314000BAF10001AAF1010ADDDC05E017F8010B74
:103150005A46179990476D1CB8F10001A8F1010873
:10316000F4DC5B462146179A0598ABE62D0000007B
:103170002B000000200000002DE9F041044600254E
:103180001E461746880404D405E039462020B0477F
:103190006D1C641EF9D52846BDE8F0812DE9F0418B
:1031A000044600251E469046C80301D5302700E09E
:1031B0002027880404D505E041463846B0476D1CF9
:1031C000641EF9D52846BDE8F0814A68002A06D079
:1031D0000A68531C0B6010704868401E48607047B6
:1031E00000000000000000000102030406070809B7
:1031F00002030405060708090A0B0C0D0E0F101038
:10320000010225752068656C6C6F0A003032000879
:103210000000002010000000F828000840320008DC
:1032200010000020880400000829000800000000A9
:103230000024F40001000000100000000000000065
:04000005080000ED02
:00000001FF
