:020000040800F2
:100000007004002001010008051D0008611B0008A4
:10001000011D00086D0100083921000800000000E2
:10002000000000000000000000000000651E000845
:100030007101000800000000751D0008BD1E0008C9
:100040001B0100081B0100081B0100081B01000820
:100050001B0100081B0100081B0100081B01000810
:100060001B0100081B0100081B0100081B01000800
:100070001B0100081B0100081B0100081B010008F0
:100080001B0100081B0100081B0100081B010008E0
:100090001B0100081B0100081B0100081B010008D0
:1000A0001B0100081B0100081B0100081B010008C0
:1000B0001B010008551F0008000000001B0100087C
:1000C0001B01000800000000000000001B010008E8
:1000D000000000001B0100081B01000800000000D8
:1000E0001B0100081B0100081B010008DFF80CD0F1
:1000F00000F02AF800480047FD21000870040020A5
:100100000648804706480047FEE7FEE7FEE7FEE7B1
:10011000FEE7FEE7FEE7FEE7FEE7FEE7511F000809
:10012000ED000008D2B201E000F8012B491EFBD21D
:1001300070470022F6E710B513460A4604461946F2
:10014000FFF7F0FF204610BD064C074D06E0E068C3
:1001500040F0010394E8070098471034AC42F6D30E
:10016000FFF7C8FFAC220008CC220008FFE7FEE73B
:100170007047000081B0EFF3108072B60090FFE787
:10018000FEE7000080B584B0039000F0B7F902905C
:10019000039801900198013048B1FFE740F2040054
:1001A000C2F200000178019808440190FFE7FFE7E0
:1001B00000F0A4F90299401A0199884201D2FFE7A0
:1001C000F6E704B080BD00008FB00E900D910020C6
:1001D0000C900890FFE70D9800680C99C840002823
:1001E00000F07181FFE70C99012088400B900D9879
:1001F00000680B9908400A900A980B99884240F0D1
:100200005E81FFE70D9840680490002851D0FFE719
:10021000049801283AD0FFE7049802283FD0FFE76E
:10022000049803285FD0FFE70498112832D0FFE735
:100230000498122838D0FFE704980021C1F2110178
:10024000884236D0FFE704980021C1F212018842AB
:100250002FD0FFE704980021C1F22101884228D065
:10026000FFE704980021C1F22201884221D0FFE774
:1002700004980021C1F2310188421AD0FFE70498A6
:100280000021C1F23201884213D02FE00D98C068DE
:1002900008902CE00D98C0680430089027E00D9875
:1002A000C0680830089022E00D98C0680C300890B3
:1002B0001DE00D98806818B9FFE70420089011E050
:1002C0000D988068012806D1FFE7082008900B9858
:1002D0000E99086105E0082008900B980E99486176
:1002E000FFE7FFE703E00020089000E0FFE70A983F
:1002F000FF2803D8FFE70E98039003E00E98043020
:100300000390FFE7039807900A98FF2804D8FFE7B7
:100310000C988000029006E00C996FF01F0000EB33
:1003200081000290FFE70298069007980068069AFD
:100330000F2191408843089991400843079908602C
:100340000D98C079C006002840F1B880FFE7FFE7AC
:1003500041F21800C4F20200016841F0010101609D
:10036000006800F0010005900598FFE70C9820F068
:1003700003000821C4F20101405809900C9800F0D4
:10038000030081000F2000FA01F1099888430990C9
:100390000E9840F60001C4F20101884203D1FFE744
:1003A0000020019018E00E9840F60041C4F20101CF
:1003B000884203D1FFE7012000900AE00E9941F244
:1003C0000002C4F201020320914208BF0220009003
:1003D000FFE700980190FFE701980C9901F00301F5
:1003E000890000FA01F109980843099009980C99CD
:1003F00021F003010822C4F2010288500D9880798F
:10040000C006002809D5FFE70A9A40F20841C4F265
:10041000010108681043086008E00A9A40F20841A8
:10042000C4F20101086890430860FFE70D988079E5
:100430008006002809D5FFE70A9A40F20C41C4F271
:10044000010108681043086008E00A9A40F20C4174
:10045000C4F20101086890430860FFE70D988079B5
:100460008007002809D5FFE70A9A40F20441C4F248
:10047000010108681043086008E00A9A40F204414C
:10048000C4F20101086890430860FFE70D98807985
:10049000C00748B1FFE70A9A40F20041C4F20101E7
:1004A00008681043086008E00A9A40F20041C4F26C
:1004B0000101086890430860FFE7FFE7FFE70C9839
:1004C00001300C9087E60FB07047000082B00190B9
:1004D000ADF802108DF801209DF8010028B1FFE76A
:1004E000BDF802000199086105E0BDF802000004B2
:1004F00001990861FFE702B07047000040F26C000C
:10050000C2F200000068704740F20400C2F200002E
:10051000027840F26C01C2F20001086810440860E1
:100520007047000080B542F20001C4F20201086881
:1005300040F010000860032000F086F80F2000F063
:1005400005F800F03BF8002080BD000080B582B0C7
:10055000009040F20000C2F20000006840F2040186
:10056000C2F200010A784FF47A71B1FBF2F1B0FBEC
:10057000F1F000F0F5FF20B1FFE701208DF8070052
:1005800018E000980F280DD8FFE700994FF0FF30D2
:10059000002200F03FF8009840F20801C2F200018A
:1005A000086003E001208DF8070003E000208DF8CB
:1005B0000700FFE79DF8070002B080BD82B0FFE7AB
:1005C00041F21800C4F20200016841F0010101602B
:1005D000006800F0010001900198FFE7FFE741F299
:1005E0001C00C4F20200016841F080510160006803
:1005F00000F0805000900098FFE702B070470000C4
:1006000080B582B08DF807009DF9070001F096FDD6
:1006100002B080BD80B586B08DF8170004910392BA
:100620000020029001F0A2FD02909DF917000190B8
:1006300002980499039A01F067FB0146019801F0C2
:100640009DFD06B080BD000080B582B0019001988C
:1006500001F0B6FD02B080BD2021C4F20E210120C0
:100660000860704780B588B007900020069005901C
:1006700004900390029007980190012866D0FFE74C
:100680000198022800F0A580FFE70198102840F0AB
:10069000B080FFE741F20400C4F20200006803905A
:1006A00041F20000C4F202000068C00100284CD5ED
:1006B000FFE70398C0F3834142F28820C0F60000B0
:1006C000405C04909DF80E00C007F0B1FFE741F2D6
:1006D0000400C4F202000068C0F3404142F29820D6
:1006E000C0F60000405C06909DF80E00C00758B1AF
:1006F000FFE7069941F20020C0F27A00B0FBF1F06A
:10070000049948430590FFE707E0049840F600117C
:10071000C0F23D0148430590FFE741F20400C4F2F6
:10072000020000684002002803D5FFE70598029008
:100730000AE0059840004AF6AB21CAF6AA21A0FBC0
:10074000011040080290FFE7FFE753E041F220006C
:10075000C4F2020000680390039800F44070B0F502
:10076000807F0AD1FFE79DF80C008007002804D5A0
:10077000FFE74FF4004002902AE0039800F4407035
:10078000B0F5007F0DD1FFE741F22400C4F2020072
:1007900000688007002804D5FFE749F64040029032
:1007A00015E0039800F44070B0F5407F0DD1FFE7ED
:1007B00041F20000C4F2020000688003002804D562
:1007C000FFE74FF22440029000E0FFE7FFE7FFE77A
:1007D00010E000F029FA41F20401C4F202010968B4
:1007E00001F44042022101EB5231B0FBF1F00290E2
:1007F00000E0FFE7029808B080BD000080B586B039
:10080000049000200390029004980078C00700280C
:1008100000F0AC80FFE700208DF8070041F21C00DB
:10082000C4F202000068C000002813D4FFE7FFE70D
:1008300041F21C00C4F20200016841F080510160E5
:10084000006800F0805000900098FFE701208DF8CC
:100850000700FFE747F20000C4F200000068C0058F
:10086000002822D4FFE747F20001C4F20001086823
:1008700040F480700860FFF741FE0390FFE747F205
:100880000000C4F200000068C00500280CD4FFE797
:10089000FFF734FE0399401A652804D3FFE70320CD
:1008A0008DF817008AE0EAE7FFE741F22000C4F282
:1008B0000200006800F4407002900298E0B3FFE785
:1008C00002980499496801F44071884234D0FFE7E6
:1008D00041F22001C4F20201086820F44070029045
:1008E00040F24042C4F24222012010600020106019
:1008F000029808609DF80800C007E0B1FFE7FFF725
:10090000FDFD0390FFE741F22000C4F20200006801
:10091000800700280ED4FFE7FFF7F0FD0399401A87
:1009200041F28931884204D3FFE703208DF8170094
:1009300044E0E8E7FFE7FFE741F22001C4F20201EB
:10094000086820F44070049A5268104308609DF8CB
:100950000700012809D1FFE741F21C01C4F202019E
:10096000086820F080500860FFE7FFE704980078EF
:10097000800700280CD5FFE741F20401C4F2020110
:10098000086820F44040049A926810430860FFE72A
:1009900004980078C00600280CD5FFE741F2040156
:1009A000C4F20201086820F48000049AD26810435F
:1009B0000860FFE700208DF81700FFE79DF817009B
:1009C00006B080BD80B584B002900191029820B934
:1009D000FFE701208DF80F001BE1019842F20001B2
:1009E000C4F20201096801F00701884216D9FFE745
:1009F00042F20000C4F20200016821F00701019AEE
:100A000011430160006800F007000199884204D09A
:100A1000FFE701208DF80F00FBE0FFE70298007868
:100A2000800700282AD5FFE70298007840070028B1
:100A300009D5FFE741F20401C4F20201086840F45D
:100A4000E0600860FFE7029800780007002809D5F9
:100A5000FFE741F20401C4F20201086840F460506B
:100A60000860FFE741F20401C4F20201086820F0C7
:100A7000F000029A926810430860FFE7029800783D
:100A8000C007002860D0FFE70298406801280ED117
:100A9000FFE741F20000C4F2020000688003002872
:100AA00004D4FFE701208DF80F00B2E021E00298A6
:100AB000406802280ED1FFE741F20000C4F20200B4
:100AC00000688001002804D4FFE701208DF80F00A2
:100AD0009FE00DE041F20000C4F2020000688007D0
:100AE000002804D4FFE701208DF80F0091E0FFE714
:100AF000FFE741F20401C4F20201086820F003009C
:100B0000029A526810430860FFF7F8FC0090FFE774
:100B100041F20400C4F20200006800F00C000299E7
:100B20004968B0EB810F0ED0FFE7FFF7E7FC0099B3
:100B3000401A41F28931884204D3FFE703208DF83F
:100B40000F0066E0E4E7FFE7019842F20001C4F21B
:100B50000201096801F00701884216D2FFE742F25C
:100B60000000C4F20200016821F00701019A11435C
:100B70000160006800F007000199884204D0FFE797
:100B800001208DF80F0044E0FFE70298007840074D
:100B900000280CD5FFE741F20401C4F20201086805
:100BA00020F4E060029AD26810430860FFE70298E0
:100BB0000078000700280DD5FFE741F20401C4F2D8
:100BC0000201086820F46050029A126940EAC200EB
:100BD0000860FFE700F03AF841F20401C4F20201B4
:100BE0000968C9B20A0942F27021C0F60001895CA5
:100BF000C84040F20001C2F20001086040F2080063
:100C0000C2F200000068FFF7A1FC00208DF80F0081
:100C1000FFE79DF80F0004B080BD000040F2000027
:100C2000C2F200000068704780B5FFF7F7FF41F29D
:100C30000401C4F202010968C1F3C22242F2802118
:100C4000C0F60001895CC84080BD000086B000206D
:100C50000590049003900290019041F20400C4F2C8
:100C6000020000680590059800F00C000146009114
:100C700000283FD0FFE70098042804D0FFE7009841
:100C8000082806D037E041F20020C0F27A00019037
:100C900037E00598C0F3834142F29A20C0F6000085
:100CA000405C02909DF81600C007C0B1FFE741F21A
:100CB0000400C4F202000068C0F3404142F2AA20DE
:100CC000C0F60000405C0490029841F20021C0F29E
:100CD0007A0148430499B0FBF1F0039007E00298D1
:100CE00040F60011C0F23D0148430390FFE703982E
:100CF000019006E0FFE741F20020C0F27A00019087
:100D0000FFE7019806B0704780B586B0049004985C
:100D100020B9FFE701208DF817002EE30498007832
:100D2000C007002800F0AE80FFE741F20400C4F2E3
:100D30000200006800F00C00042813D0FFE741F225
:100D40000400C4F20200006800F00C0008281BD167
:100D5000FFE741F20400C4F202000068C00300286B
:100D600012D5FFE741F20000C4F2020000688003E0
:100D7000002808D5FFE70498406820B9FFE7012064
:100D80008DF81700F9E27CE0FFE704984068B0F5C1
:100D9000803F09D1FFE741F20001C4F20201086877
:100DA00040F48030086032E00498406868B9FFE79A
:100DB00041F20001C4F20201086820F480300860AA
:100DC000086820F48020086020E004984068B0F5AE
:100DD000A02F0DD1FFE741F20001C4F20201086823
:100DE00040F480200860086840F4803008600CE01F
:100DF00041F20001C4F20201086820F4803008606A
:100E0000086820F480200860FFE7FFE7FFE7FFE7BE
:100E100004984068D0B1FFE7FFF770FB0390FFE74D
:100E200041F20000C4F202000068800300280CD4E4
:100E3000FFE7FFF763FB0399401A652804D3FFE738
:100E400003208DF8170098E2EAE719E0FFF756FB58
:100E50000390FFE741F20000C4F202000068800343
:100E600000280CD5FFE7FFF749FB0399401A6528D6
:100E700004D3FFE703208DF817007EE2EAE7FFE7DF
:100E8000FFE7FFE7049800788007002840F18D8095
:100E9000FFE741F20400C4F20200006810F00C0FFA
:100EA00013D0FFE741F20400C4F20200006800F032
:100EB0000C00082829D1FFE741F20400C4F2020027
:100EC0000068C003002820D4FFE741F20000C4F20C
:100ED000020000688007002809D5FFE70498006930
:100EE000012804D0FFE701208DF8170045E241F208
:100EF0000001C4F20201086820F0F800049A526967
:100F000040EAC2000860FFE74EE00498006958B369
:100F1000FFE70021C4F2422101200860FFF7EEFA4A
:100F20000390FFE741F20000C4F20200006880076E
:100F300000280CD4FFE7FFF7E1FA0399401A0328D1
:100F400004D3FFE703208DF8170016E2EAE741F229
:100F50000001C4F20201086820F0F800049A526906
:100F600040EAC20008601EE00021C4F242210020D5
:100F70000860FFF7C3FA0390FFE741F20000C4F2F4
:100F800002000068800700280CD5FFE7FFF7B6FADB
:100F90000399401A032804D3FFE703208DF81700B4
:100FA000EBE1EAE7FFE7FFE7FFE7049800780007D7
:100FB000002848D5FFE70498806918B3FFE740F29E
:100FC0008041C4F2422101200860FFF797FA0390A4
:100FD000FFE741F22400C4F2020000688007002805
:100FE0000CD4FFE7FFF78AFA0399401A032804D3C9
:100FF000FFE703208DF81700BFE1EAE7012000F0CA
:10100000BBFE1FE040F28041C4F242210020086094
:10101000FFF774FA0390FFE741F22400C4F20200E4
:101020000068800700280CD5FFE7FFF767FA0399EF
:10103000401A032804D3FFE703208DF817009CE132
:10104000EAE7FFE7FFE7049800784007002840F14F
:10105000D880FFE700208DF8070041F21C00C4F2A1
:1010600002000068C000002813D4FFE7FFE741F248
:101070001C00C4F20200016841F080510160006868
:1010800000F0805000900098FFE701208DF80700E5
:10109000FFE747F20000C4F200000068C005002826
:1010A00022D4FFE747F20001C4F20001086840F4CF
:1010B00080700860FFF722FA0390FFE747F2000014
:1010C000C4F200000068C00500280CD4FFE7FFF759
:1010D00015FA0399401A652804D3FFE703208DF819
:1010E00017004AE1EAE7FFE7FFE70498C068012834
:1010F00009D1FFE741F22001C4F20201086840F083
:101100000100086031E00498C06868B9FFE741F267
:101110002001C4F20201086820F00100086008689C
:1011200020F0040008601FE00498C06805280DD175
:10113000FFE741F22001C4F20201086840F0040018
:101140000860086840F0010008600CE041F22001EE
:10115000C4F20201086820F001000860086820F06D
:1011600004000860FFE7FFE7FFE7FFE70498C068B7
:10117000E0B1FFE7FFF7C2F90390FFE741F220007B
:10118000C4F202000068800700280ED4FFE7FFF7D2
:10119000B5F90399401A41F28931884204D3FFE737
:1011A00003208DF81700E8E0E8E71BE0FFF7A6F959
:1011B0000390FFE741F22000C4F2020000688007BC
:1011C00000280ED5FFE7FFF799F90399401A41F27D
:1011D0008931884204D3FFE703208DF81700CCE063
:1011E000E8E7FFE79DF80700012809D1FFE741F292
:1011F0001C01C4F20201086820F080500860FFE77B
:10120000FFE70498C069002800F0B380FFE741F2CF
:101210000400C4F20200006800F00C00082800F08E
:101220008280FFE70498C06902285CD1FFE7602153
:10123000C4F2422100200860FFF760F90390FFE745
:1012400041F20000C4F202000068800100280CD5C1
:10125000FFE7FFF753F90399401A032804D3FFE788
:1012600003208DF8170088E0EAE70498006AB0F5DB
:10127000803F0CD1FFE741F20401C4F2020108688B
:1012800020F40030049A926810430860FFE741F2AE
:101290000401C4F20201086820F47410049B1A6A65
:1012A0005B6A1A43104308606021C4F242210120A6
:1012B0000860FFF723F90390FFE741F20000C4F252
:1012C00002000068800100280CD4FFE7FFF716F940
:1012D0000399401A032804D3FFE703208DF8170071
:1012E0004BE0EAE71EE06021C4F2422100200860E2
:1012F000FFF704F90390FFE741F20000C4F2020097
:101300000068800100280CD5FFE7FFF7F7F8039984
:10131000401A032804D3FFE703208DF817002CE0C0
:10132000EAE7FFE724E00498C069012804D1FFE759
:1013300001208DF8170020E041F20400C4F2020001
:1013400000680290029800F480300499096A88428B
:1013500008D1FFE7029800F470100499496A8842A6
:1013600004D0FFE701208DF8170006E0FFE7FFE754
:10137000FFE700208DF81700FFE79DF8170006B083
:1013800080BD000080B584B00290002001900298DA
:1013900020B9FFE701208DF80F0084E00298407C1F
:1013A00038B9FFE7029900200874029800F080F82D
:1013B000FFE7029902204874029800F09FF838B1C4
:1013C000FFE702990420487401208DF80F006AE0BD
:1013D000029800F0EFFC38B1FFE70299042048744E
:1013E00001208DF80F005EE002980168486820F047
:1013F000070048600298806848B1FFE746F6304130
:10140000C4F20001086820F001000860FFE746F61A
:101410002C41C4F20001086820F46070029A9268BE
:101420001043086002984068013020B1FFE702983D
:101430004068019012E00120FFF714F90190019833
:1014400038B9FFE702990420487401208DF80F0095
:1014500029E0019801380190FFE7FFE7BDF8060099
:1014600000F00F00029909688860BDF80400029935
:101470000968C860029800F0C9FC38B1FFE702991A
:101480000420487401208DF80F000CE00299002020
:10149000C873029A01215173029A9173029A51748E
:1014A0008DF80F00FFE79DF80F0004B080BD00002D
:1014B00080B582B001900198006842F60001C4F244
:1014C0000001884218D1FFE7FFF7C6F8FFE741F2B5
:1014D0001C00C4F20200016841F000610160006874
:1014E00000F0006000900098FFE740F23C41C4F239
:1014F000422101200860FFE702B080BD80B584B0C2
:10150000029000200190029820B9FFE701208DF899
:101510000F0021E002980168486820F00800486048
:10152000FEF7ECFF0190FFE70298006840680007B3
:1015300000280DD4FFE7FEF7E1FF0199401AB0F54E
:101540007A7F04D9FFE703208DF80F0004E0EBE772
:1015500000208DF80F00FFE79DF80F0004B080BD5C
:1015600080B582B00190019800F07EFC02B080BD91
:1015700081B0009001B0704781B0009001B0704719
:1015800085B003900291FFE7039890F83C00012892
:1015900004D1FFE702208DF8130052E003990120E7
:1015A00081F83C00FFE7FFE70399022081F83D0046
:1015B0000398006840680190039800688068009074
:1015C000019820F07000019002980168019808438A
:1015D000019001980399096848600398006842F6F1
:1015E0000041C4F2010188420FD0FFE70398006870
:1015F000B0F1804F09D0FFE70398006840F2004146
:10160000C4F2000188420ED1FFE7009820F080006C
:101610000090029841680098084300900098039950
:1016200009688860FFE70399012081F83D00FFE722
:101630000399002081F83C00FFE700208DF813009B
:10164000FFE79DF8130005B07047000080B582B039
:101650000090009820B9FFE701208DF807003FE0D7
:10166000009890F83D0040B9FFE70099002081F80C
:101670003C00009800F038F8FFE70099022081F85C
:101680003D00009951F8040B00F06CFC009901201A
:1016900081F84600FFE70099012081F83E0000999B
:1016A00081F83F00009981F84000009981F84100DD
:1016B000FFE7FFE70099012081F84200009981F8D7
:1016C0004300009981F84400009981F84500FFE744
:1016D0000099012081F83D0000208DF80700FFE708
:1016E0009DF8070002B080BD80B584B003900398D8
:1016F000006840F20041C4F20001884219D1FFE7BE
:10170000FFE741F21C00C4F20200016841F002014F
:101710000160006800F0020002900298FFE71D20BF
:10172000019000221146FEF775FF0198FEF768FF51
:10173000FFE704B080BD000080B586B0049003913F
:1017400000208DF80B00FFE7049890F83C0001287A
:1017500004D1FFE702208DF81700ABE004990120C7
:1017600081F83C00FFE7FFE70499022081F83D0083
:101770000498006880680190019820F0770001903B
:10178000019820F47F4001900198049909688860CD
:10179000039800680090002872D0FFE70098102896
:1017A0006ED0FFE7009820286AD0FFE70098302825
:1017B00066D0FFE70098402855D0FFE700985028F2
:1017C00037D0FFE70098602840D0FFE700987028E6
:1017D0000BD0FFE70098B0F5805F05D0FFE70098D9
:1017E000B0F5005F16D052E055E004980068039B06
:1017F0005A689968DB6800F01DFC049800688068EE
:101800000190019840F077000190019804990968CF
:10181000886040E004980068039B5A689968DB6818
:1018200000F008FC04980168886840F480408860F3
:1018300031E004980068039A5168D26800F02AFCED
:1018400004980068502100F00FFC24E00498006820
:10185000039A5168D26800F045FC04980068602142
:1018600000F002FC17E004980068039A5168D268FF
:1018700000F010FC04980068402100F0F5FB0AE03D
:10188000049800680399096800F0EEFB03E001206A
:101890008DF80B00FFE70499012081F83D00FFE778
:1018A0000499002081F83C00FFE79DF80B008DF8BB
:1018B0001700FFE79DF8170006B080BD81B00090CB
:1018C00001B0704780B582B001900198006800694E
:1018D00000F002010020B0EB510F28D0FFE7019883
:1018E0000068C06800F002010020B0EB510F1DD06D
:1018F000FFE7019801686FF002000861019901207B
:101900000877019800688069800720B1FFE7019897
:10191000FFF7D4FF06E0019800F012F9019800F0FB
:1019200013F9FFE7019900200877FFE7FFE7019827
:101930000068006900F004010020B0EB910F29D08D
:10194000FFE701980068C06800F004010020B0EBD8
:10195000910F1ED0FFE7019801686FF00400086145
:1019600001990220087701980068806910F4407F8F
:1019700004D0FFE70198FFF7A1FF06E0019800F00F
:10198000DFF8019800F0E0F8FFE701990020087700
:10199000FFE7FFE701980068006900F008010020F8
:1019A000B0EBD10F28D0FFE701980068C06800F0C5
:1019B00008010020B0EBD10F1DD0FFE701980168AE
:1019C0006FF0080008610199042008770198006809
:1019D000C069800720B1FFE70198FFF76FFF06E0BD
:1019E000019800F0ADF8019800F0AEF8FFE701991A
:1019F00000200877FFE7FFE701980068006900F022
:101A000010010020B0EB111F29D0FFE701980068FA
:101A1000C06800F010010020B0EB111F1ED0FFE7DE
:101A2000019801686FF0100008610199082008779B
:101A300001980068C06910F4407F04D0FFE7019866
:101A4000FFF73CFF06E0019800F07AF8019800F0FB
:101A50007BF8FFE7019900200877FFE7FFE701988F
:101A600000680069C00780B1FFE701980068C0689E
:101A7000C00748B1FFE7019801686FF001000861F5
:101A8000019800F065F8FFE7FFE70198006800693A
:101A9000C1B20020B0EBD11F13D0FFE7019800685E
:101AA000C068C1B20020B0EBD11F09D0FFE7019898
:101AB00001686FF0800008610198FFF759FDFFE7AA
:101AC000FFE701980068006900F040010020B0EBDA
:101AD000911F14D0FFE701980068C06800F0400132
:101AE0000020B0EB911F09D0FFE7019801686FF06B
:101AF00040000861019800F02FF8FFE7FFE7019828
:101B00000068006900F020010020B0EB511F14D0E4
:101B1000FFE701980068C06800F020010020B0EBEA
:101B2000511F09D0FFE7019801686FF0200008619C
:101B30000198FFF721FDFFE7FFE702B080BD00003D
:101B400081B0009001B0704781B0009001B0704743
:101B500081B0009001B0704781B0009001B0704733
:101B6000FFE7FEE780B58EB000200D900C900B9043
:101B70000A90FFE741F21800C4F20200016841F048
:101B800010010160006800F0100009900998FFE75B
:101B9000FFE741F21800C4F20200016841F02001A1
:101BA0000160006800F0200008900898FFE7FFE758
:101BB00041F21800C4F20200016841F0080101601E
:101BC000006800F0080007900798FFE741F2000066
:101BD000C4F2010000904FF40051029100220392E0
:101BE000FEF774FC40F60040C4F2010005904FF48B
:101BF0008051019101220492FEF768FC0098029B3B
:101C00000399049A0A930B920C9102210D910AA94F
:101C10000691FEF7D9FA019B049A059806990A9352
:101C20000B920C9203220D92FEF7CEFADDF808C05B
:101C3000039B049A05980699CDF828C00B930C9243
:101C4000FEF7C2FA0EB080BD80B540F21000C2F2BD
:101C5000000042F60001C4F2000101604FF0FF31C4
:101C600041604FF480718160FFF78CFB18B1FFE792
:101C7000FEF780FAFFE780BD80B588B000210191B2
:101C800007910691059104910391029140F224007D
:101C9000C2F2000040F20042C4F20002026040F2D0
:101CA0008362426081600122C260016180218161A2
:101CB000FFF7CCFC18B1FFE7FEF75CFAFFE74FF443
:101CC0008050049040F22400C2F2000004A9FFF703
:101CD00033FD18B1FFE7FEF74DFAFFE70020029051
:101CE000039040F22400C2F2000002A9FFF748FC72
:101CF00018B1FFE7FEF73EFAFFE708B080BD00002D
:101D0000FFE7FEE7FFE7FEE788B007900691059240
:101D1000079800F0070004900498C0F10700052818
:101D200003D3FFE70420019004E00498C0F107000A
:101D30000190FFE70198039004980430062803D827
:101D4000FFE70020009003E0049803380090FFE7CD
:101D50000098029006980399012202FA01F10139D4
:101D60000840029B984005999A40013A1140084367
:101D700008B070477047000082B00190019840F2AF
:101D80000001C2F200010968C90844F6D352C1F249
:101D90006202A1FB0221890948430090FFE700BFCE
:101DA000FFE70098411E00910028F8D1FFE702B03C
:101DB0007047000080B584B0029000200190FEF7CB
:101DC0009DFB0190FFE702980068406880060028AC
:101DD0000DD4FFE7FEF792FB0199401AB0F57A7F28
:101DE00004D9FFE703208DF80F000AE0EBE7029823
:101DF0000168486840F01000486000208DF80F002E
:101E0000FFE79DF80F0004B080BD000080B584B0EE
:101E100002900020019002980168486820F01000AC
:101E20004860FEF76BFB0190FFE70298006840688E
:101E3000800600280DD4FFE7FEF760FB0199401AE9
:101E4000B0F57A7F04D9FFE703208DF80F0004E096
:101E5000EBE700208DF80F00FFE79DF80F0004B0BE
:101E600080BD00007047000080B582B000900098EF
:101E70000138B0F1807F03D3FFE70120019019E022
:101E8000009801384EF21401CEF2000108604FF0C4
:101E9000FF300F2100F072F94EF21801CEF200016E
:101EA000002008604EF21002CEF2000207211160FD
:101EB0000190FFE7019802B080BD000080B5FEF7F9
:101EC00023FB80BD80B596B00CA801902821FEF7B9
:101ED00030F90198002102910B910A910991089122
:101EE0000791069105910491039109220C924FF4F8
:101EF00080320D920E9101231093129302231393BB
:101F000014921591FEF700FF18B1FFE7FEF732F9C2
:101F1000FFE70F20079002200890002109910A9105
:101F20000B9107A8FEF74EFD18B1FFE7FEF722F967
:101F3000FFE7012003904FF40070049003A8FEF720
:101F40005DFC18B1FFE7FEF715F9FFE716B080BD9D
:101F50007047000080B540F22400C2F20000FFF795
:101F6000B1FC80BD83B0029001910298006800909E
:101F7000029842F60041C4F2010188420DD0FFE709
:101F80000298B0F1804F08D0FFE7029840F200417C
:101F9000C4F2000188420AD1FFE7009820F07000E7
:101FA000009001984168009808430090FFE702986C
:101FB00042F60041C4F2010188420DD0FFE70298C9
:101FC000B0F1804F08D0FFE7029840F20041C4F220
:101FD000000188420AD1FFE7009820F44070009089
:101FE0000198C168009808430090FFE7009820F02E
:101FF000800001994969084300900098029908609F
:10200000019880680299C862019800680299886204
:10201000029842F60041C4F20101884205D1FFE76F
:102020000198006902990863FFE70299012048615D
:1020300003B0704785B00490039102920193049815
:1020400080680090009820F47F40009003980299E7
:10205000019A41EA02210143009808430090009848
:102060000499886005B0704783B00290019102988E
:1020700080680090009820F070000090019800990E
:10208000084340F00700009000980299886003B070
:102090007047000085B00490039102920498006A92
:1020A00000900499086A20F0010008620498806991
:1020B0000190019820F0F00001900299019840EA07
:1020C00001100190009820F00A00009003990098F8
:1020D0000843009001980499886100980499086267
:1020E00005B0704785B00490039102920498006A8D
:1020F00000900499086A20F0100008620498806932
:102100000190019820F4704001900299019840EAF2
:1021100001300190009820F0A000009003990098F1
:1021200040EA011000900198049988610098049990
:10213000086205B070470000FFE7FEE781B08DF848
:1021400003009DF9030000280ED4FFE79DF903105A
:1021500001F01F02012090404A094EF20011CEF218
:10216000000141F82200FFE701B070474EF60C5025
:10217000CEF200000068C0F30220704782B08DF8F4
:10218000070000919DF9070000280AD4FFE7009896
:1021900000019DF907104EF20042CEF20002885471
:1021A0000BE0009800019DF8071001F00F014EF6BA
:1021B0001452CEF200028854FFE702B070470000CC
:1021C00083B00290029800F0070000904EF60C5188
:1021D000CEF200010868019001984FF6FF0210400E
:1021E00001900198009A40EA02200022C0F2FA52BF
:1021F000104301900198086003B0704780B5B8B0F3
:1022000000203790FEF78EF9FFF75CFEFFF7AAFC7F
:10221000FFF71AFDFFF730FD4FF4FA60FDF7B2FF4C
:10222000FFE740F60040C4F2010001904FF48051F6
:1022300002910122FEF74AF932200390FDF7A2FF36
:10224000019802990022FEF741F90398FDF79AFFE1
:10225000E7E702E008C8121F08C1002AFAD1704758
:102260007047002001E001C1121F002AFBD1704716
:102270000000000000000000010203040607080936
:102280000000000001020304020304050607080918
:102290000A0B0C0D0E0F10100102020304050607B5
:1022A00008090A0B0C0D0E0F10100102D0220008B5
:1022B000000000201000000052220008E022000868
:1022C00010000020600400006222000800000000EE
:1022D0000024F400010000001000000000000000D5
:04000005080000ED02
:00000001FF
